{
  "_format": "hh-sol-artifact-1",
  "contractName": "Logistics",
  "sourceName": "contracts/Logistics.sol",
  "abi": [
    {
      "anonymous": false,
      "inputs": [
        {
          "indexed": false,
          "internalType": "uint256",
          "name": "depositId",
          "type": "uint256"
        },
        {
          "indexed": false,
          "internalType": "string",
          "name": "confirmUserUUID",
          "type": "string"
        }
      ],
      "name": "DepositApproved",
      "type": "event"
    },
    {
      "anonymous": false,
      "inputs": [
        {
          "indexed": false,
          "internalType": "uint256",
          "name": "depositId",
          "type": "uint256"
        },
        {
          "indexed": false,
          "internalType": "string",
          "name": "chargedUserUUID",
          "type": "string"
        },
        {
          "indexed": false,
          "internalType": "uint256",
          "name": "sourceLocationId",
          "type": "uint256"
        },
        {
          "indexed": false,
          "internalType": "uint256",
          "name": "destLocationId",
          "type": "uint256"
        }
      ],
      "name": "DepositCreated",
      "type": "event"
    },
    {
      "anonymous": false,
      "inputs": [
        {
          "indexed": false,
          "internalType": "uint256",
          "name": "depositId",
          "type": "uint256"
        },
        {
          "indexed": false,
          "internalType": "string",
          "name": "confirmUserUUID",
          "type": "string"
        }
      ],
      "name": "DepositRejected",
      "type": "event"
    },
    {
      "anonymous": false,
      "inputs": [
        {
          "indexed": false,
          "internalType": "uint256",
          "name": "locationId",
          "type": "uint256"
        },
        {
          "indexed": false,
          "internalType": "string",
          "name": "name",
          "type": "string"
        }
      ],
      "name": "LocationCreated",
      "type": "event"
    },
    {
      "inputs": [
        {
          "internalType": "uint256",
          "name": "_depositId",
          "type": "uint256"
        },
        {
          "internalType": "string",
          "name": "_confirmUserUUID",
          "type": "string"
        }
      ],
      "name": "approveDeposit",
      "outputs": [],
      "stateMutability": "nonpayable",
      "type": "function"
    },
    {
      "inputs": [
        {
          "internalType": "uint256",
          "name": "_sourceLocationId",
          "type": "uint256"
        },
        {
          "internalType": "uint256",
          "name": "_destLocationId",
          "type": "uint256"
        },
        {
          "internalType": "string",
          "name": "_chargedUserUUID",
          "type": "string"
        },
        {
          "internalType": "string[]",
          "name": "_itemNames",
          "type": "string[]"
        },
        {
          "internalType": "uint256[]",
          "name": "_itemQuantities",
          "type": "uint256[]"
        }
      ],
      "name": "createDeposit",
      "outputs": [],
      "stateMutability": "nonpayable",
      "type": "function"
    },
    {
      "inputs": [
        {
          "internalType": "string",
          "name": "_type",
          "type": "string"
        },
        {
          "internalType": "string",
          "name": "_name",
          "type": "string"
        },
        {
          "internalType": "string",
          "name": "_xCor",
          "type": "string"
        },
        {
          "internalType": "string",
          "name": "_yCor",
          "type": "string"
        },
        {
          "internalType": "string[]",
          "name": "_chargedUserUUIDs",
          "type": "string[]"
        }
      ],
      "name": "createLocation",
      "outputs": [],
      "stateMutability": "nonpayable",
      "type": "function"
    },
    {
      "inputs": [],
      "name": "depositCount",
      "outputs": [
        {
          "internalType": "uint256",
          "name": "",
          "type": "uint256"
        }
      ],
      "stateMutability": "view",
      "type": "function"
    },
    {
      "inputs": [
        {
          "internalType": "uint256",
          "name": "",
          "type": "uint256"
        }
      ],
      "name": "deposits",
      "outputs": [
        {
          "internalType": "string",
          "name": "chargedUserUUID",
          "type": "string"
        },
        {
          "internalType": "string",
          "name": "confirmUserUUID",
          "type": "string"
        },
        {
          "internalType": "uint256",
          "name": "sourceLocationId",
          "type": "uint256"
        },
        {
          "internalType": "uint256",
          "name": "destLocationId",
          "type": "uint256"
        },
        {
          "internalType": "uint256",
          "name": "timestamp",
          "type": "uint256"
        },
        {
          "internalType": "string",
          "name": "status",
          "type": "string"
        }
      ],
      "stateMutability": "view",
      "type": "function"
    },
    {
      "inputs": [
        {
          "internalType": "uint256",
          "name": "_depositId",
          "type": "uint256"
        }
      ],
      "name": "getDeposit",
      "outputs": [
        {
          "internalType": "string",
          "name": "",
          "type": "string"
        },
        {
          "internalType": "string",
          "name": "",
          "type": "string"
        },
        {
          "internalType": "uint256",
          "name": "",
          "type": "uint256"
        },
        {
          "internalType": "uint256",
          "name": "",
          "type": "uint256"
        },
        {
          "internalType": "string[]",
          "name": "",
          "type": "string[]"
        },
        {
          "internalType": "uint256",
          "name": "",
          "type": "uint256"
        },
        {
          "internalType": "string",
          "name": "",
          "type": "string"
        }
      ],
      "stateMutability": "view",
      "type": "function"
    },
    {
      "inputs": [
        {
          "internalType": "uint256",
          "name": "_locationId",
          "type": "uint256"
        }
      ],
      "name": "getLocation",
      "outputs": [
        {
          "internalType": "string",
          "name": "",
          "type": "string"
        },
        {
          "internalType": "string",
          "name": "",
          "type": "string"
        },
        {
          "internalType": "string",
          "name": "",
          "type": "string"
        },
        {
          "internalType": "string",
          "name": "",
          "type": "string"
        },
        {
          "internalType": "string[]",
          "name": "",
          "type": "string[]"
        }
      ],
      "stateMutability": "view",
      "type": "function"
    },
    {
      "inputs": [],
      "name": "locationCount",
      "outputs": [
        {
          "internalType": "uint256",
          "name": "",
          "type": "uint256"
        }
      ],
      "stateMutability": "view",
      "type": "function"
    },
    {
      "inputs": [
        {
          "internalType": "uint256",
          "name": "",
          "type": "uint256"
        }
      ],
      "name": "locations",
      "outputs": [
        {
          "internalType": "string",
          "name": "locationType",
          "type": "string"
        },
        {
          "internalType": "string",
          "name": "name",
          "type": "string"
        },
        {
          "internalType": "string",
          "name": "xCor",
          "type": "string"
        },
        {
          "internalType": "string",
          "name": "yCor",
          "type": "string"
        }
      ],
      "stateMutability": "view",
      "type": "function"
    },
    {
      "inputs": [
        {
          "internalType": "uint256",
          "name": "_depositId",
          "type": "uint256"
        },
        {
          "internalType": "string",
          "name": "_confirmUserUUID",
          "type": "string"
        }
      ],
      "name": "rejectDeposit",
      "outputs": [],
      "stateMutability": "nonpayable",
      "type": "function"
    },
    {
      "inputs": [
        {
          "internalType": "uint256",
          "name": "_locationId",
          "type": "uint256"
        },
        {
          "internalType": "string",
          "name": "_itemName",
          "type": "string"
        },
        {
          "internalType": "uint256",
          "name": "_quantity",
          "type": "uint256"
        }
      ],
      "name": "updateItemQuantity",
      "outputs": [],
      "stateMutability": "nonpayable",
      "type": "function"
    }
  ],
  "bytecode": "0x60806040526000600255600060035534801561001a57600080fd5b50612b518061002a6000396000f3fe608060405234801561001057600080fd5b50600436106100a95760003560e01c8063887032541161007157806388703254146101545780638f71ca71146101725780639f9fb9681461018e578063b02c43d0146101c4578063b3eee249146101f9578063b9e0db3514610215576100a9565b80632dfdf0b5146100ae57806331fd9b75146100cc57806350d5bd7d146100e857806362d0c8f0146101045780637f7b139314610120575b600080fd5b6100b6610248565b6040516100c391906119c8565b60405180910390f35b6100e660048036038101906100e19190611b69565b61024e565b005b61010260048036038101906100fd9190611d81565b610289565b005b61011e60048036038101906101199190611e50565b610662565b005b61013a60048036038101906101359190611eac565b610a12565b60405161014b959493929190612064565b60405180910390f35b61015c610d5b565b60405161016991906119c8565b60405180910390f35b61018c600480360381019061018791906120da565b610d61565b005b6101a860048036038101906101a39190611eac565b610e7b565b6040516101bb97969594939291906121e1565b60405180910390f35b6101de60048036038101906101d99190611eac565b61114e565b6040516101f09695949392919061226c565b60405180910390f35b610213600480360381019061020e9190611e50565b611322565b005b61022f600480360381019061022a9190611eac565b611596565b60405161023f94939291906122e2565b60405180910390f35b60035481565b8060008085815260200190815260200160002060040183604051610272919061237f565b908152602001604051809103902081905550505050565b84836000805b6000808581526020019081526020016000206005018054905081101561034857826040516020016102c0919061237f565b6040516020818303038152906040528051906020012060008086815260200190815260200160002060050182815481106102fd576102fc612396565b5b9060005260206000200160405160200161031791906124bd565b604051602081830303815290604052805190602001200361033b5760019150610348565b808060010191505061028f565b5080610389576040517f08c379a000000000000000000000000000000000000000000000000000000000815260040161038090612546565b60405180910390fd5b83518551146103cd576040517f08c379a00000000000000000000000000000000000000000000000000000000081526004016103c4906125d8565b60405180910390fd5b8560016000600354815260200190815260200160002060000190816103f2919061278f565b508760016000600354815260200190815260200160002060020181905550866001600060035481526020019081526020016000206003018190555042600160006003548152602001908152602001600020600601819055506040518060400160405280600781526020017f50656e64696e670000000000000000000000000000000000000000000000000081525060016000600354815260200190815260200160002060070190816104a4919061278f565b508460016000600354815260200190815260200160002060050190805190602001906104d19291906118d5565b5060005b8551811015610600578481815181106104f1576104f0612396565b5b60200260200101516000808b815260200190815260200160002060040187838151811061052157610520612396565b5b6020026020010151604051610536919061237f565b9081526020016040518091039020541015610586576040517f08c379a000000000000000000000000000000000000000000000000000000000815260040161057d906128d3565b60405180910390fd5b84818151811061059957610598612396565b5b60200260200101516001600060035481526020019081526020016000206004018783815181106105cc576105cb612396565b5b60200260200101516040516105e1919061237f565b90815260200160405180910390208190555080806001019150506104d5565b507ff2a60942ad5dbbb9e82da183da9646827fd2881448315a9c2bd811738daf99cb600354878a8a60405161063894939291906128f3565b60405180910390a1600360008154809291906106539061296e565b91905055505050505050505050565b6001600083815260200190815260200160002060030154816000805b6000808581526020019081526020016000206005018054905081101561073757826040516020016106af919061237f565b6040516020818303038152906040528051906020012060008086815260200190815260200160002060050182815481106106ec576106eb612396565b5b9060005260206000200160405160200161070691906124bd565b604051602081830303815290604052805190602001200361072a5760019150610737565b808060010191505061067e565b5080610778576040517f08c379a000000000000000000000000000000000000000000000000000000000815260040161076f90612546565b60405180910390fd5b60405160200161078790612a02565b60405160208183030381529060405280519060200120600160008781526020019081526020016000206007016040516020016107c391906124bd565b6040516020818303038152906040528051906020012014610819576040517f08c379a000000000000000000000000000000000000000000000000000000000815260040161081090612a63565b60405180910390fd5b6040518060400160405280600881526020017f417070726f766564000000000000000000000000000000000000000000000000815250600160008781526020019081526020016000206007019081610871919061278f565b5083600160008781526020019081526020016000206001019081610895919061278f565b5060006108a1866117e6565b905060005b81518110156109d05760008282815181106108c4576108c3612396565b5b602002602001015190506000600160008a8152602001908152602001600020600401826040516108f4919061237f565b908152602001604051809103902054905080600080600160008d81526020019081526020016000206002015481526020019081526020016000206004018360405161093f919061237f565b9081526020016040518091039020600082825461095c9190612a83565b9250508190555080600080600160008d81526020019081526020016000206003015481526020019081526020016000206004018360405161099d919061237f565b908152602001604051809103902060008282546109ba9190612ab7565b92505081905550505080806001019150506108a6565b507fa3523848c60823714ef6dac9db948d64e69fac53a4eb697dc4191879f92d316c8686604051610a02929190612aeb565b60405180910390a1505050505050565b6060806060806060600080600088815260200190815260200160002090508060000181600101826002018360030184600501848054610a50906123f4565b80601f0160208091040260200160405190810160405280929190818152602001828054610a7c906123f4565b8015610ac95780601f10610a9e57610100808354040283529160200191610ac9565b820191906000526020600020905b815481529060010190602001808311610aac57829003601f168201915b50505050509450838054610adc906123f4565b80601f0160208091040260200160405190810160405280929190818152602001828054610b08906123f4565b8015610b555780601f10610b2a57610100808354040283529160200191610b55565b820191906000526020600020905b815481529060010190602001808311610b3857829003601f168201915b50505050509350828054610b68906123f4565b80601f0160208091040260200160405190810160405280929190818152602001828054610b94906123f4565b8015610be15780601f10610bb657610100808354040283529160200191610be1565b820191906000526020600020905b815481529060010190602001808311610bc457829003601f168201915b50505050509250818054610bf4906123f4565b80601f0160208091040260200160405190810160405280929190818152602001828054610c20906123f4565b8015610c6d5780601f10610c4257610100808354040283529160200191610c6d565b820191906000526020600020905b815481529060010190602001808311610c5057829003601f168201915b5050505050915080805480602002602001604051908101604052809291908181526020016000905b82821015610d41578382906000526020600020018054610cb4906123f4565b80601f0160208091040260200160405190810160405280929190818152602001828054610ce0906123f4565b8015610d2d5780601f10610d0257610100808354040283529160200191610d2d565b820191906000526020600020905b815481529060010190602001808311610d1057829003601f168201915b505050505081526020019060010190610c95565b505050509050955095509550955095505091939590929450565b60025481565b8460008060025481526020019081526020016000206000019081610d85919061278f565b508360008060025481526020019081526020016000206001019081610daa919061278f565b508260008060025481526020019081526020016000206002019081610dcf919061278f565b508160008060025481526020019081526020016000206003019081610df4919061278f565b508060008060025481526020019081526020016000206005019080519060200190610e209291906118d5565b507f904e97912d6c1177805f50d832b5129a64a9b95af70a38239c29c8514e6c122660025485604051610e54929190612aeb565b60405180910390a160026000815480929190610e6f9061296e565b91905055505050505050565b6060806000806060600060606000600160008a8152602001908152602001600020905080600001816001018260020154836003015484600501856006015486600701868054610ec9906123f4565b80601f0160208091040260200160405190810160405280929190818152602001828054610ef5906123f4565b8015610f425780601f10610f1757610100808354040283529160200191610f42565b820191906000526020600020905b815481529060010190602001808311610f2557829003601f168201915b50505050509650858054610f55906123f4565b80601f0160208091040260200160405190810160405280929190818152602001828054610f81906123f4565b8015610fce5780601f10610fa357610100808354040283529160200191610fce565b820191906000526020600020905b815481529060010190602001808311610fb157829003601f168201915b5050505050955082805480602002602001604051908101604052809291908181526020016000905b828210156110a2578382906000526020600020018054611015906123f4565b80601f0160208091040260200160405190810160405280929190818152602001828054611041906123f4565b801561108e5780601f106110635761010080835404028352916020019161108e565b820191906000526020600020905b81548152906001019060200180831161107157829003601f168201915b505050505081526020019060010190610ff6565b5050505092508080546110b4906123f4565b80601f01602080910402602001604051908101604052809291908181526020018280546110e0906123f4565b801561112d5780601f106111025761010080835404028352916020019161112d565b820191906000526020600020905b81548152906001019060200180831161111057829003601f168201915b50505050509050975097509750975097509750975050919395979092949650565b6001602052806000526040600020600091509050806000018054611171906123f4565b80601f016020809104026020016040519081016040528092919081815260200182805461119d906123f4565b80156111ea5780601f106111bf576101008083540402835291602001916111ea565b820191906000526020600020905b8154815290600101906020018083116111cd57829003601f168201915b5050505050908060010180546111ff906123f4565b80601f016020809104026020016040519081016040528092919081815260200182805461122b906123f4565b80156112785780601f1061124d57610100808354040283529160200191611278565b820191906000526020600020905b81548152906001019060200180831161125b57829003601f168201915b50505050509080600201549080600301549080600601549080600701805461129f906123f4565b80601f01602080910402602001604051908101604052809291908181526020018280546112cb906123f4565b80156113185780601f106112ed57610100808354040283529160200191611318565b820191906000526020600020905b8154815290600101906020018083116112fb57829003601f168201915b5050505050905086565b6001600083815260200190815260200160002060030154816000805b600080858152602001908152602001600020600501805490508110156113f7578260405160200161136f919061237f565b6040516020818303038152906040528051906020012060008086815260200190815260200160002060050182815481106113ac576113ab612396565b5b906000526020600020016040516020016113c691906124bd565b60405160208183030381529060405280519060200120036113ea57600191506113f7565b808060010191505061133e565b5080611438576040517f08c379a000000000000000000000000000000000000000000000000000000000815260040161142f90612546565b60405180910390fd5b60405160200161144790612a02565b604051602081830303815290604052805190602001206001600087815260200190815260200160002060070160405160200161148391906124bd565b60405160208183030381529060405280519060200120146114d9576040517f08c379a00000000000000000000000000000000000000000000000000000000081526004016114d090612a63565b60405180910390fd5b6040518060400160405280600881526020017f52656a6563746564000000000000000000000000000000000000000000000000815250600160008781526020019081526020016000206007019081611531919061278f565b5083600160008781526020019081526020016000206001019081611555919061278f565b507faba7bf6808a7a45eae20d8ee86c162ace278615ce8c4ab1a9d7663143f8f64a58585604051611587929190612aeb565b60405180910390a15050505050565b60006020528060005260406000206000915090508060000180546115b9906123f4565b80601f01602080910402602001604051908101604052809291908181526020018280546115e5906123f4565b80156116325780601f1061160757610100808354040283529160200191611632565b820191906000526020600020905b81548152906001019060200180831161161557829003601f168201915b505050505090806001018054611647906123f4565b80601f0160208091040260200160405190810160405280929190818152602001828054611673906123f4565b80156116c05780601f10611695576101008083540402835291602001916116c0565b820191906000526020600020905b8154815290600101906020018083116116a357829003601f168201915b5050505050908060020180546116d5906123f4565b80601f0160208091040260200160405190810160405280929190818152602001828054611701906123f4565b801561174e5780601f106117235761010080835404028352916020019161174e565b820191906000526020600020905b81548152906001019060200180831161173157829003601f168201915b505050505090806003018054611763906123f4565b80601f016020809104026020016040519081016040528092919081815260200182805461178f906123f4565b80156117dc5780601f106117b1576101008083540402835291602001916117dc565b820191906000526020600020905b8154815290600101906020018083116117bf57829003601f168201915b5050505050905084565b606060016000838152602001908152602001600020600501805480602002602001604051908101604052809291908181526020016000905b828210156118ca57838290600052602060002001805461183d906123f4565b80601f0160208091040260200160405190810160405280929190818152602001828054611869906123f4565b80156118b65780601f1061188b576101008083540402835291602001916118b6565b820191906000526020600020905b81548152906001019060200180831161189957829003601f168201915b50505050508152602001906001019061181e565b505050509050919050565b82805482825590600052602060002090810192821561191d579160200282015b8281111561191c57825182908161190c919061278f565b50916020019190600101906118f5565b5b50905061192a919061192e565b5090565b5b8082111561194e57600081816119459190611952565b5060010161192f565b5090565b50805461195e906123f4565b6000825580601f10611970575061198f565b601f01602090049060005260206000209081019061198e9190611992565b5b50565b5b808211156119ab576000816000905550600101611993565b5090565b6000819050919050565b6119c2816119af565b82525050565b60006020820190506119dd60008301846119b9565b92915050565b6000604051905090565b600080fd5b600080fd5b611a00816119af565b8114611a0b57600080fd5b50565b600081359050611a1d816119f7565b92915050565b600080fd5b600080fd5b6000601f19601f8301169050919050565b7f4e487b7100000000000000000000000000000000000000000000000000000000600052604160045260246000fd5b611a7682611a2d565b810181811067ffffffffffffffff82111715611a9557611a94611a3e565b5b80604052505050565b6000611aa86119e3565b9050611ab48282611a6d565b919050565b600067ffffffffffffffff821115611ad457611ad3611a3e565b5b611add82611a2d565b9050602081019050919050565b82818337600083830152505050565b6000611b0c611b0784611ab9565b611a9e565b905082815260208101848484011115611b2857611b27611a28565b5b611b33848285611aea565b509392505050565b600082601f830112611b5057611b4f611a23565b5b8135611b60848260208601611af9565b91505092915050565b600080600060608486031215611b8257611b816119ed565b5b6000611b9086828701611a0e565b935050602084013567ffffffffffffffff811115611bb157611bb06119f2565b5b611bbd86828701611b3b565b9250506040611bce86828701611a0e565b9150509250925092565b600067ffffffffffffffff821115611bf357611bf2611a3e565b5b602082029050602081019050919050565b600080fd5b6000611c1c611c1784611bd8565b611a9e565b90508083825260208201905060208402830185811115611c3f57611c3e611c04565b5b835b81811015611c8657803567ffffffffffffffff811115611c6457611c63611a23565b5b808601611c718982611b3b565b85526020850194505050602081019050611c41565b5050509392505050565b600082601f830112611ca557611ca4611a23565b5b8135611cb5848260208601611c09565b91505092915050565b600067ffffffffffffffff821115611cd957611cd8611a3e565b5b602082029050602081019050919050565b6000611cfd611cf884611cbe565b611a9e565b90508083825260208201905060208402830185811115611d2057611d1f611c04565b5b835b81811015611d495780611d358882611a0e565b845260208401935050602081019050611d22565b5050509392505050565b600082601f830112611d6857611d67611a23565b5b8135611d78848260208601611cea565b91505092915050565b600080600080600060a08688031215611d9d57611d9c6119ed565b5b6000611dab88828901611a0e565b9550506020611dbc88828901611a0e565b945050604086013567ffffffffffffffff811115611ddd57611ddc6119f2565b5b611de988828901611b3b565b935050606086013567ffffffffffffffff811115611e0a57611e096119f2565b5b611e1688828901611c90565b925050608086013567ffffffffffffffff811115611e3757611e366119f2565b5b611e4388828901611d53565b9150509295509295909350565b60008060408385031215611e6757611e666119ed565b5b6000611e7585828601611a0e565b925050602083013567ffffffffffffffff811115611e9657611e956119f2565b5b611ea285828601611b3b565b9150509250929050565b600060208284031215611ec257611ec16119ed565b5b6000611ed084828501611a0e565b91505092915050565b600081519050919050565b600082825260208201905092915050565b60005b83811015611f13578082015181840152602081019050611ef8565b60008484015250505050565b6000611f2a82611ed9565b611f348185611ee4565b9350611f44818560208601611ef5565b611f4d81611a2d565b840191505092915050565b600081519050919050565b600082825260208201905092915050565b6000819050602082019050919050565b600082825260208201905092915050565b6000611fa082611ed9565b611faa8185611f84565b9350611fba818560208601611ef5565b611fc381611a2d565b840191505092915050565b6000611fda8383611f95565b905092915050565b6000602082019050919050565b6000611ffa82611f58565b6120048185611f63565b93508360208202850161201685611f74565b8060005b8581101561205257848403895281516120338582611fce565b945061203e83611fe2565b925060208a0199505060018101905061201a565b50829750879550505050505092915050565b600060a082019050818103600083015261207e8188611f1f565b905081810360208301526120928187611f1f565b905081810360408301526120a68186611f1f565b905081810360608301526120ba8185611f1f565b905081810360808301526120ce8184611fef565b90509695505050505050565b600080600080600060a086880312156120f6576120f56119ed565b5b600086013567ffffffffffffffff811115612114576121136119f2565b5b61212088828901611b3b565b955050602086013567ffffffffffffffff811115612141576121406119f2565b5b61214d88828901611b3b565b945050604086013567ffffffffffffffff81111561216e5761216d6119f2565b5b61217a88828901611b3b565b935050606086013567ffffffffffffffff81111561219b5761219a6119f2565b5b6121a788828901611b3b565b925050608086013567ffffffffffffffff8111156121c8576121c76119f2565b5b6121d488828901611c90565b9150509295509295909350565b600060e08201905081810360008301526121fb818a611f1f565b9050818103602083015261220f8189611f1f565b905061221e60408301886119b9565b61222b60608301876119b9565b818103608083015261223d8186611fef565b905061224c60a08301856119b9565b81810360c083015261225e8184611f1f565b905098975050505050505050565b600060c08201905081810360008301526122868189611f1f565b9050818103602083015261229a8188611f1f565b90506122a960408301876119b9565b6122b660608301866119b9565b6122c360808301856119b9565b81810360a08301526122d58184611f1f565b9050979650505050505050565b600060808201905081810360008301526122fc8187611f1f565b905081810360208301526123108186611f1f565b905081810360408301526123248185611f1f565b905081810360608301526123388184611f1f565b905095945050505050565b600081905092915050565b600061235982611ed9565b6123638185612343565b9350612373818560208601611ef5565b80840191505092915050565b600061238b828461234e565b915081905092915050565b7f4e487b7100000000000000000000000000000000000000000000000000000000600052603260045260246000fd5b7f4e487b7100000000000000000000000000000000000000000000000000000000600052602260045260246000fd5b6000600282049050600182168061240c57607f821691505b60208210810361241f5761241e6123c5565b5b50919050565b60008190508160005260206000209050919050565b60008154612447816123f4565b6124518186612343565b9450600182166000811461246c5760018114612481576124b4565b60ff19831686528115158202860193506124b4565b61248a85612425565b60005b838110156124ac5781548189015260018201915060208101905061248d565b838801955050505b50505092915050565b60006124c9828461243a565b915081905092915050565b7f4163636573732064656e6965643a204e6f74206120636861726765642075736560008201527f72206f662074686973206c6f636174696f6e0000000000000000000000000000602082015250565b6000612530603283611ee4565b915061253b826124d4565b604082019050919050565b6000602082019050818103600083015261255f81612523565b9050919050565b7f4974656d7320616e64207175616e746974696573206c656e677468206d69736d60008201527f6174636800000000000000000000000000000000000000000000000000000000602082015250565b60006125c2602483611ee4565b91506125cd82612566565b604082019050919050565b600060208201905081810360008301526125f1816125b5565b9050919050565b60006020601f8301049050919050565b600082821b905092915050565b6000600883026126457fffffffffffffffffffffffffffffffffffffffffffffffffffffffffffffffff82612608565b61264f8683612608565b95508019841693508086168417925050509392505050565b6000819050919050565b600061268c612687612682846119af565b612667565b6119af565b9050919050565b6000819050919050565b6126a683612671565b6126ba6126b282612693565b848454612615565b825550505050565b600090565b6126cf6126c2565b6126da81848461269d565b505050565b5b818110156126fe576126f36000826126c7565b6001810190506126e0565b5050565b601f8211156127435761271481612425565b61271d846125f8565b8101602085101561272c578190505b612740612738856125f8565b8301826126df565b50505b505050565b600082821c905092915050565b600061276660001984600802612748565b1980831691505092915050565b600061277f8383612755565b9150826002028217905092915050565b61279882611ed9565b67ffffffffffffffff8111156127b1576127b0611a3e565b5b6127bb82546123f4565b6127c6828285612702565b600060209050601f8311600181146127f957600084156127e7578287015190505b6127f18582612773565b865550612859565b601f19841661280786612425565b60005b8281101561282f5784890151825560018201915060208501945060208101905061280a565b8683101561284c5784890151612848601f891682612755565b8355505b6001600288020188555050505b505050505050565b7f496e73756666696369656e74206974656d7320696e20736f75726365206c6f6360008201527f6174696f6e000000000000000000000000000000000000000000000000000000602082015250565b60006128bd602583611ee4565b91506128c882612861565b604082019050919050565b600060208201905081810360008301526128ec816128b0565b9050919050565b600060808201905061290860008301876119b9565b818103602083015261291a8186611f1f565b905061292960408301856119b9565b61293660608301846119b9565b95945050505050565b7f4e487b7100000000000000000000000000000000000000000000000000000000600052601160045260246000fd5b6000612979826119af565b91507fffffffffffffffffffffffffffffffffffffffffffffffffffffffffffffffff82036129ab576129aa61293f565b5b600182019050919050565b7f50656e64696e6700000000000000000000000000000000000000000000000000600082015250565b60006129ec600783612343565b91506129f7826129b6565b600782019050919050565b6000612a0d826129df565b9150819050919050565b7f4465706f736974206973206e6f742070656e64696e6700000000000000000000600082015250565b6000612a4d601683611ee4565b9150612a5882612a17565b602082019050919050565b60006020820190508181036000830152612a7c81612a40565b9050919050565b6000612a8e826119af565b9150612a99836119af565b9250828203905081811115612ab157612ab061293f565b5b92915050565b6000612ac2826119af565b9150612acd836119af565b9250828201905080821115612ae557612ae461293f565b5b92915050565b6000604082019050612b0060008301856119b9565b8181036020830152612b128184611f1f565b9050939250505056fea2646970667358221220b1f57ef8d39dfb4da0033bb24c2badff2f6f973a96ad8ba6242f025794e5452064736f6c63430008180033",
  "linkReferences": {},
  "deployedLinkReferences": {}
}