{
  "_format": "hh-sol-artifact-1",
  "contractName": "Logistics",
  "sourceName": "contracts/Logistics.sol",
  "abi": [
    {
      "inputs": [],
      "name": "InvalidInitialization",
      "type": "error"
    },
    {
      "inputs": [],
      "name": "NotInitializing",
      "type": "error"
    },
    {
      "inputs": [],
      "name": "ReentrancyGuardReentrantCall",
      "type": "error"
    },
    {
      "anonymous": false,
      "inputs": [
        {
          "indexed": false,
          "internalType": "uint256",
          "name": "depositId",
          "type": "uint256"
        },
        {
          "indexed": false,
          "internalType": "string",
          "name": "confirmUserUUID",
          "type": "string"
        }
      ],
      "name": "DepositApproved",
      "type": "event"
    },
    {
      "anonymous": false,
      "inputs": [
        {
          "indexed": false,
          "internalType": "uint256",
          "name": "depositId",
          "type": "uint256"
        },
        {
          "indexed": false,
          "internalType": "string",
          "name": "chargedUserUUID",
          "type": "string"
        },
        {
          "indexed": false,
          "internalType": "uint256",
          "name": "sourceLocationId",
          "type": "uint256"
        },
        {
          "indexed": false,
          "internalType": "uint256",
          "name": "destLocationId",
          "type": "uint256"
        }
      ],
      "name": "DepositCreated",
      "type": "event"
    },
    {
      "anonymous": false,
      "inputs": [
        {
          "indexed": false,
          "internalType": "uint256",
          "name": "depositId",
          "type": "uint256"
        },
        {
          "indexed": false,
          "internalType": "string",
          "name": "confirmUserUUID",
          "type": "string"
        }
      ],
      "name": "DepositRejected",
      "type": "event"
    },
    {
      "anonymous": false,
      "inputs": [
        {
          "indexed": false,
          "internalType": "uint64",
          "name": "version",
          "type": "uint64"
        }
      ],
      "name": "Initialized",
      "type": "event"
    },
    {
      "anonymous": false,
      "inputs": [
        {
          "indexed": false,
          "internalType": "uint256",
          "name": "locationId",
          "type": "uint256"
        },
        {
          "indexed": false,
          "internalType": "string",
          "name": "itemName",
          "type": "string"
        },
        {
          "indexed": false,
          "internalType": "uint256",
          "name": "quantity",
          "type": "uint256"
        }
      ],
      "name": "ItemQuantityUpdated",
      "type": "event"
    },
    {
      "anonymous": false,
      "inputs": [
        {
          "indexed": false,
          "internalType": "uint256",
          "name": "locationId",
          "type": "uint256"
        },
        {
          "indexed": false,
          "internalType": "string",
          "name": "name",
          "type": "string"
        }
      ],
      "name": "LocationCreated",
      "type": "event"
    },
    {
      "anonymous": false,
      "inputs": [
        {
          "indexed": false,
          "internalType": "uint256",
          "name": "locationId",
          "type": "uint256"
        },
        {
          "indexed": false,
          "internalType": "string",
          "name": "userUUID",
          "type": "string"
        }
      ],
      "name": "UserAuthorized",
      "type": "event"
    },
    {
      "inputs": [
        {
          "internalType": "uint256",
          "name": "_locationId",
          "type": "uint256"
        },
        {
          "internalType": "string",
          "name": "_userUUID",
          "type": "string"
        }
      ],
      "name": "addChargedUser",
      "outputs": [],
      "stateMutability": "nonpayable",
      "type": "function"
    },
    {
      "inputs": [
        {
          "internalType": "uint256",
          "name": "_depositId",
          "type": "uint256"
        },
        {
          "internalType": "string",
          "name": "_confirmUserUUID",
          "type": "string"
        }
      ],
      "name": "approveDeposit",
      "outputs": [],
      "stateMutability": "nonpayable",
      "type": "function"
    },
    {
      "inputs": [
        {
          "internalType": "uint256",
          "name": "_sourceLocationId",
          "type": "uint256"
        },
        {
          "internalType": "uint256",
          "name": "_destLocationId",
          "type": "uint256"
        },
        {
          "internalType": "string",
          "name": "_chargedUserUUID",
          "type": "string"
        },
        {
          "internalType": "string[]",
          "name": "_itemNames",
          "type": "string[]"
        },
        {
          "internalType": "uint256[]",
          "name": "_itemQuantities",
          "type": "uint256[]"
        }
      ],
      "name": "createDeposit",
      "outputs": [],
      "stateMutability": "nonpayable",
      "type": "function"
    },
    {
      "inputs": [
        {
          "internalType": "string",
          "name": "_type",
          "type": "string"
        },
        {
          "internalType": "string",
          "name": "_name",
          "type": "string"
        },
        {
          "internalType": "string",
          "name": "_xCor",
          "type": "string"
        },
        {
          "internalType": "string",
          "name": "_yCor",
          "type": "string"
        },
        {
          "internalType": "string[]",
          "name": "_chargedUserUUIDs",
          "type": "string[]"
        }
      ],
      "name": "createLocation",
      "outputs": [],
      "stateMutability": "nonpayable",
      "type": "function"
    },
    {
      "inputs": [],
      "name": "depositCount",
      "outputs": [
        {
          "internalType": "uint256",
          "name": "",
          "type": "uint256"
        }
      ],
      "stateMutability": "view",
      "type": "function"
    },
    {
      "inputs": [
        {
          "internalType": "uint256",
          "name": "",
          "type": "uint256"
        }
      ],
      "name": "deposits",
      "outputs": [
        {
          "internalType": "string",
          "name": "chargedUserUUID",
          "type": "string"
        },
        {
          "internalType": "string",
          "name": "confirmUserUUID",
          "type": "string"
        },
        {
          "internalType": "uint256",
          "name": "sourceLocationId",
          "type": "uint256"
        },
        {
          "internalType": "uint256",
          "name": "destLocationId",
          "type": "uint256"
        },
        {
          "internalType": "uint256",
          "name": "timestamp",
          "type": "uint256"
        },
        {
          "internalType": "enum Logistics.DepositStatus",
          "name": "status",
          "type": "uint8"
        }
      ],
      "stateMutability": "view",
      "type": "function"
    },
    {
      "inputs": [
        {
          "internalType": "uint256",
          "name": "_depositId",
          "type": "uint256"
        }
      ],
      "name": "getDeposit",
      "outputs": [
        {
          "internalType": "string",
          "name": "",
          "type": "string"
        },
        {
          "internalType": "string",
          "name": "",
          "type": "string"
        },
        {
          "internalType": "uint256",
          "name": "",
          "type": "uint256"
        },
        {
          "internalType": "uint256",
          "name": "",
          "type": "uint256"
        },
        {
          "internalType": "string[]",
          "name": "",
          "type": "string[]"
        },
        {
          "internalType": "uint256",
          "name": "",
          "type": "uint256"
        },
        {
          "internalType": "enum Logistics.DepositStatus",
          "name": "",
          "type": "uint8"
        }
      ],
      "stateMutability": "view",
      "type": "function"
    },
    {
      "inputs": [
        {
          "internalType": "uint256",
          "name": "_locationId",
          "type": "uint256"
        }
      ],
      "name": "getItemListForLocation",
      "outputs": [
        {
          "internalType": "string[]",
          "name": "",
          "type": "string[]"
        },
        {
          "internalType": "uint256[]",
          "name": "",
          "type": "uint256[]"
        }
      ],
      "stateMutability": "view",
      "type": "function"
    },
    {
      "inputs": [
        {
          "internalType": "uint256",
          "name": "_locationId",
          "type": "uint256"
        }
      ],
      "name": "getLocation",
      "outputs": [
        {
          "internalType": "string",
          "name": "",
          "type": "string"
        },
        {
          "internalType": "string",
          "name": "",
          "type": "string"
        },
        {
          "internalType": "string",
          "name": "",
          "type": "string"
        },
        {
          "internalType": "string",
          "name": "",
          "type": "string"
        },
        {
          "internalType": "string[]",
          "name": "",
          "type": "string[]"
        }
      ],
      "stateMutability": "view",
      "type": "function"
    },
    {
      "inputs": [],
      "name": "initialize",
      "outputs": [],
      "stateMutability": "nonpayable",
      "type": "function"
    },
    {
      "inputs": [],
      "name": "locationCount",
      "outputs": [
        {
          "internalType": "uint256",
          "name": "",
          "type": "uint256"
        }
      ],
      "stateMutability": "view",
      "type": "function"
    },
    {
      "inputs": [
        {
          "internalType": "uint256",
          "name": "",
          "type": "uint256"
        }
      ],
      "name": "locations",
      "outputs": [
        {
          "internalType": "string",
          "name": "locationType",
          "type": "string"
        },
        {
          "internalType": "string",
          "name": "name",
          "type": "string"
        },
        {
          "internalType": "string",
          "name": "xCor",
          "type": "string"
        },
        {
          "internalType": "string",
          "name": "yCor",
          "type": "string"
        }
      ],
      "stateMutability": "view",
      "type": "function"
    },
    {
      "inputs": [
        {
          "internalType": "uint256",
          "name": "_depositId",
          "type": "uint256"
        },
        {
          "internalType": "string",
          "name": "_confirmUserUUID",
          "type": "string"
        }
      ],
      "name": "rejectDeposit",
      "outputs": [],
      "stateMutability": "nonpayable",
      "type": "function"
    },
    {
      "inputs": [
        {
          "internalType": "uint256",
          "name": "_locationId",
          "type": "uint256"
        },
        {
          "internalType": "string",
          "name": "_itemName",
          "type": "string"
        },
        {
          "internalType": "uint256",
          "name": "_quantity",
          "type": "uint256"
        }
      ],
      "name": "updateItemQuantity",
      "outputs": [],
      "stateMutability": "nonpayable",
      "type": "function"
    }
  ],
  "bytecode": "0x60806040526000600255600060035534801561001a57600080fd5b506136128061002a6000396000f3fe608060405234801561001057600080fd5b50600436106100ea5760003560e01c80638f71ca711161008c578063b3eee24911610066578063b3eee24914610244578063b9e0db3514610260578063cbd5b51514610293578063e608f86e146102c4576100ea565b80638f71ca71146101bd5780639f9fb968146101d9578063b02c43d01461020f576100ea565b806362d0c8f0116100c857806362d0c8f0146101455780637f7b1393146101615780638129fc1c14610195578063887032541461019f576100ea565b80632dfdf0b5146100ef57806331fd9b751461010d57806350d5bd7d14610129575b600080fd5b6100f76102e0565b6040516101049190612134565b60405180910390f35b610127600480360381019061012291906122d5565b6102e6565b005b610143600480360381019061013e91906124ed565b6103de565b005b61015f600480360381019061015a91906125bc565b6106aa565b005b61017b60048036038101906101769190612618565b61082e565b60405161018c9594939291906127d0565b60405180910390f35b61019d610b77565b005b6101a7610d04565b6040516101b49190612134565b60405180910390f35b6101d760048036038101906101d29190612846565b610d0a565b005b6101f360048036038101906101ee9190612618565b610f63565b60405161020697969594939291906129c4565b60405180910390f35b61022960048036038101906102249190612618565b6111b7565b60405161023b96959493929190612a48565b60405180910390f35b61025e600480360381019061025991906125bc565b611310565b005b61027a60048036038101906102759190612618565b61148b565b60405161028a9493929190612ab7565b60405180910390f35b6102ad60048036038101906102a89190612618565b6116db565b6040516102bb929190612bd6565b60405180910390f35b6102de60048036038101906102d991906125bc565b611916565b005b60035481565b82826000808381526020019081526020016000206005018160405161030b9190612c49565b908152602001604051809103902060009054906101000a900460ff16610366576040517f08c379a000000000000000000000000000000000000000000000000000000000815260040161035d90612cd2565b60405180910390fd5b826000808781526020019081526020016000206004018560405161038a9190612c49565b9081526020016040518091039020819055507f1b6ee99fb46e708c2c5d2763366f5773c0863193933babee12933e48c9a02a498585856040516103cf93929190612cf2565b60405180910390a15050505050565b8483600080838152602001908152602001600020600501816040516104039190612c49565b908152602001604051809103902060009054906101000a900460ff1661045e576040517f08c379a000000000000000000000000000000000000000000000000000000000815260040161045590612cd2565b60405180910390fd5b82518451146104a2576040517f08c379a000000000000000000000000000000000000000000000000000000000815260040161049990612da2565b60405180910390fd5b60006001600060035481526020019081526020016000209050858160000190816104cc9190612fce565b5087816002018190555086816003018190555042816006018190555060008160070160006101000a81548160ff021916908360028111156105105761050f61294d565b5b02179055508481600501908051906020019061052d929190612041565b5060005b85518110156106485784818151811061054d5761054c6130a0565b5b60200260200101516000808b815260200190815260200160002060040187838151811061057d5761057c6130a0565b5b60200260200101516040516105929190612c49565b90815260200160405180910390205410156105e2576040517f08c379a00000000000000000000000000000000000000000000000000000000081526004016105d990613141565b60405180910390fd5b8481815181106105f5576105f46130a0565b5b602002602001015182600401878381518110610614576106136130a0565b5b60200260200101516040516106299190612c49565b9081526020016040518091039020819055508080600101915050610531565b507ff2a60942ad5dbbb9e82da183da9646827fd2881448315a9c2bd811738daf99cb600354878a8a6040516106809493929190613161565b60405180910390a16003600081548092919061069b906131dc565b91905055505050505050505050565b600160008381526020019081526020016000206003015481600080838152602001908152602001600020600501816040516106e59190612c49565b908152602001604051809103902060009054906101000a900460ff16610740576040517f08c379a000000000000000000000000000000000000000000000000000000000815260040161073790612cd2565b60405180910390fd5b610748611ae6565b6000600281111561075c5761075b61294d565b5b6001600086815260200190815260200160002060070160009054906101000a900460ff1660028111156107925761079161294d565b5b146107d2576040517f08c379a00000000000000000000000000000000000000000000000000000000081526004016107c990613270565b60405180910390fd5b6107de84600185611b3d565b6107e784611ba4565b7fa3523848c60823714ef6dac9db948d64e69fac53a4eb697dc4191879f92d316c8484604051610818929190613290565b60405180910390a1610828611ce3565b50505050565b606080606080606060008060008881526020019081526020016000209050806000018160010182600201836003018460060184805461086c90612df1565b80601f016020809104026020016040519081016040528092919081815260200182805461089890612df1565b80156108e55780601f106108ba576101008083540402835291602001916108e5565b820191906000526020600020905b8154815290600101906020018083116108c857829003601f168201915b505050505094508380546108f890612df1565b80601f016020809104026020016040519081016040528092919081815260200182805461092490612df1565b80156109715780601f1061094657610100808354040283529160200191610971565b820191906000526020600020905b81548152906001019060200180831161095457829003601f168201915b5050505050935082805461098490612df1565b80601f01602080910402602001604051908101604052809291908181526020018280546109b090612df1565b80156109fd5780601f106109d2576101008083540402835291602001916109fd565b820191906000526020600020905b8154815290600101906020018083116109e057829003601f168201915b50505050509250818054610a1090612df1565b80601f0160208091040260200160405190810160405280929190818152602001828054610a3c90612df1565b8015610a895780601f10610a5e57610100808354040283529160200191610a89565b820191906000526020600020905b815481529060010190602001808311610a6c57829003601f168201915b5050505050915080805480602002602001604051908101604052809291908181526020016000905b82821015610b5d578382906000526020600020018054610ad090612df1565b80601f0160208091040260200160405190810160405280929190818152602001828054610afc90612df1565b8015610b495780601f10610b1e57610100808354040283529160200191610b49565b820191906000526020600020905b815481529060010190602001808311610b2c57829003601f168201915b505050505081526020019060010190610ab1565b505050509050955095509550955095505091939590929450565b6000610b81611cfc565b905060008160000160089054906101000a900460ff1615905060008260000160009054906101000a900467ffffffffffffffff1690506000808267ffffffffffffffff16148015610bcf5750825b9050600060018367ffffffffffffffff16148015610c04575060003073ffffffffffffffffffffffffffffffffffffffff163b145b905081158015610c12575080155b15610c49576040517ff92ee8a900000000000000000000000000000000000000000000000000000000815260040160405180910390fd5b60018560000160006101000a81548167ffffffffffffffff021916908367ffffffffffffffff1602179055508315610c995760018560000160086101000a81548160ff0219169083151502179055505b610ca1611d24565b8315610cfd5760008560000160086101000a81548160ff0219169083151502179055507fc7f505b2f371ae2175ee4913f4499e1f2633a7b5936321eed1cdaeb6115181d26001604051610cf4919061330f565b60405180910390a15b5050505050565b60025481565b6000845111610d4e576040517f08c379a0000000000000000000000000000000000000000000000000000000008152600401610d4590613376565b60405180910390fd5b60008351118015610d60575060008251115b610d9f576040517f08c379a0000000000000000000000000000000000000000000000000000000008152600401610d96906133e2565b60405180910390fd5b610daa848484611d36565b15610dea576040517f08c379a0000000000000000000000000000000000000000000000000000000008152600401610de19061344e565b60405180910390fd5b60008060006002548152602001908152602001600020905085816000019081610e139190612fce565b5084816001019081610e259190612fce565b5083816002019081610e379190612fce565b5082816003019081610e499190612fce565b5060005b8251811015610f0757600182600501848381518110610e6f57610e6e6130a0565b5b6020026020010151604051610e849190612c49565b908152602001604051809103902060006101000a81548160ff02191690831515021790555081600601838281518110610ec057610ebf6130a0565b5b6020026020010151908060018154018082558091505060019003906000526020600020016000909190919091509081610ef99190612fce565b508080600101915050610e4d565b507f904e97912d6c1177805f50d832b5129a64a9b95af70a38239c29c8514e6c122660025486604051610f3b929190613290565b60405180910390a160026000815480929190610f56906131dc565b9190505550505050505050565b60608060008060606000806000600160008a815260200190815260200160002090508060000181600101826002015483600301548460050185600601548660070160009054906101000a900460ff16868054610fbe90612df1565b80601f0160208091040260200160405190810160405280929190818152602001828054610fea90612df1565b80156110375780601f1061100c57610100808354040283529160200191611037565b820191906000526020600020905b81548152906001019060200180831161101a57829003601f168201915b5050505050965085805461104a90612df1565b80601f016020809104026020016040519081016040528092919081815260200182805461107690612df1565b80156110c35780601f10611098576101008083540402835291602001916110c3565b820191906000526020600020905b8154815290600101906020018083116110a657829003601f168201915b5050505050955082805480602002602001604051908101604052809291908181526020016000905b8282101561119757838290600052602060002001805461110a90612df1565b80601f016020809104026020016040519081016040528092919081815260200182805461113690612df1565b80156111835780601f1061115857610100808354040283529160200191611183565b820191906000526020600020905b81548152906001019060200180831161116657829003601f168201915b5050505050815260200190600101906110eb565b505050509250975097509750975097509750975050919395979092949650565b60016020528060005260406000206000915090508060000180546111da90612df1565b80601f016020809104026020016040519081016040528092919081815260200182805461120690612df1565b80156112535780601f1061122857610100808354040283529160200191611253565b820191906000526020600020905b81548152906001019060200180831161123657829003601f168201915b50505050509080600101805461126890612df1565b80601f016020809104026020016040519081016040528092919081815260200182805461129490612df1565b80156112e15780601f106112b6576101008083540402835291602001916112e1565b820191906000526020600020905b8154815290600101906020018083116112c457829003601f168201915b5050505050908060020154908060030154908060060154908060070160009054906101000a900460ff16905086565b6001600083815260200190815260200160002060030154816000808381526020019081526020016000206005018160405161134b9190612c49565b908152602001604051809103902060009054906101000a900460ff166113a6576040517f08c379a000000000000000000000000000000000000000000000000000000000815260040161139d90612cd2565b60405180910390fd5b6113ae611ae6565b600060028111156113c2576113c161294d565b5b6001600086815260200190815260200160002060070160009054906101000a900460ff1660028111156113f8576113f761294d565b5b14611438576040517f08c379a000000000000000000000000000000000000000000000000000000000815260040161142f90613270565b60405180910390fd5b61144484600285611b3d565b7faba7bf6808a7a45eae20d8ee86c162ace278615ce8c4ab1a9d7663143f8f64a58484604051611475929190613290565b60405180910390a1611485611ce3565b50505050565b60006020528060005260406000206000915090508060000180546114ae90612df1565b80601f01602080910402602001604051908101604052809291908181526020018280546114da90612df1565b80156115275780601f106114fc57610100808354040283529160200191611527565b820191906000526020600020905b81548152906001019060200180831161150a57829003601f168201915b50505050509080600101805461153c90612df1565b80601f016020809104026020016040519081016040528092919081815260200182805461156890612df1565b80156115b55780601f1061158a576101008083540402835291602001916115b5565b820191906000526020600020905b81548152906001019060200180831161159857829003601f168201915b5050505050908060020180546115ca90612df1565b80601f01602080910402602001604051908101604052809291908181526020018280546115f690612df1565b80156116435780601f1061161857610100808354040283529160200191611643565b820191906000526020600020905b81548152906001019060200180831161162657829003601f168201915b50505050509080600301805461165890612df1565b80601f016020809104026020016040519081016040528092919081815260200182805461168490612df1565b80156116d15780601f106116a6576101008083540402835291602001916116d1565b820191906000526020600020905b8154815290600101906020018083116116b457829003601f168201915b5050505050905084565b606080600080600085815260200190815260200160002090506000816006018054905067ffffffffffffffff811115611717576117166121aa565b5b60405190808252806020026020018201604052801561174a57816020015b60608152602001906001900390816117355790505b5090506000826006018054905067ffffffffffffffff8111156117705761176f6121aa565b5b60405190808252806020026020018201604052801561179e5781602001602082028036833780820191505090505b5090506000805b84600601805490508110156119065760008560060182815481106117cc576117cb6130a0565b5b9060005260206000200180546117e190612df1565b80601f016020809104026020016040519081016040528092919081815260200182805461180d90612df1565b801561185a5780601f1061182f5761010080835404028352916020019161185a565b820191906000526020600020905b81548152906001019060200180831161183d57829003601f168201915b50505050509050600086600401826040516118759190612c49565b90815260200160405180910390205411156118f8578085848151811061189e5761189d6130a0565b5b602002602001018190525085600401816040516118bb9190612c49565b9081526020016040518091039020548484815181106118dd576118dc6130a0565b5b60200260200101818152505082806118f4906131dc565b9350505b5080806001019150506117a5565b5082829550955050505050915091565b81816000808381526020019081526020016000206005018160405161193b9190612c49565b908152602001604051809103902060009054906101000a900460ff16611996576040517f08c379a000000000000000000000000000000000000000000000000000000000815260040161198d90612cd2565b60405180910390fd5b600080858152602001908152602001600020600501836040516119b99190612c49565b908152602001604051809103902060009054906101000a900460ff1615611a15576040517f08c379a0000000000000000000000000000000000000000000000000000000008152600401611a0c906134ba565b60405180910390fd5b600160008086815260200190815260200160002060050184604051611a3a9190612c49565b908152602001604051809103902060006101000a81548160ff02191690831515021790555060008085815260200190815260200160002060060183908060018154018082558091505060019003906000526020600020016000909190919091509081611aa69190612fce565b507f782bd655988037e86c1517b1520e4efd1c3e8a15b0ac2e0de9ea3bcc1eaa2ac88484604051611ad8929190613290565b60405180910390a150505050565b6000611af0611ea9565b90506002816000015403611b30576040517f3ee5aeb500000000000000000000000000000000000000000000000000000000815260040160405180910390fd5b6002816000018190555050565b816001600085815260200190815260200160002060070160006101000a81548160ff02191690836002811115611b7657611b7561294d565b5b021790555080600160008581526020019081526020016000206001019081611b9e9190612fce565b50505050565b6000611baf82611ed1565b905060005b8151811015611cde576000828281518110611bd257611bd16130a0565b5b6020026020010151905060006001600086815260200190815260200160002060040182604051611c029190612c49565b9081526020016040518091039020549050806000806001600089815260200190815260200160002060020154815260200190815260200160002060040183604051611c4d9190612c49565b90815260200160405180910390206000828254611c6a91906134da565b92505081905550806000806001600089815260200190815260200160002060030154815260200190815260200160002060040183604051611cab9190612c49565b90815260200160405180910390206000828254611cc8919061350e565b9250508190555050508080600101915050611bb4565b505050565b6000611ced611ea9565b90506001816000018190555050565b60007ff0c57e16840df040f15088dc2f81fe391c3923bec73e23a9662efc9c229c6a00905090565b611d2c611fc0565b611d34612000565b565b600080600090505b600254811015611e9c5784604051602001611d599190612c49565b60405160208183030381529060405280519060200120600080838152602001908152602001600020600101604051602001611d9491906135c5565b604051602081830303815290604052805190602001201480611e80575083604051602001611dc29190612c49565b60405160208183030381529060405280519060200120600080838152602001908152602001600020600201604051602001611dfd91906135c5565b60405160208183030381529060405280519060200120148015611e7f575082604051602001611e2c9190612c49565b60405160208183030381529060405280519060200120600080838152602001908152602001600020600301604051602001611e6791906135c5565b60405160208183030381529060405280519060200120145b5b15611e8f576001915050611ea2565b8080600101915050611d3e565b50600090505b9392505050565b60007f9b779b17422d0df92223018b32b4d1fa46e071723d6817e2486d003becc55f00905090565b606060016000838152602001908152602001600020600501805480602002602001604051908101604052809291908181526020016000905b82821015611fb5578382906000526020600020018054611f2890612df1565b80601f0160208091040260200160405190810160405280929190818152602001828054611f5490612df1565b8015611fa15780601f10611f7657610100808354040283529160200191611fa1565b820191906000526020600020905b815481529060010190602001808311611f8457829003601f168201915b505050505081526020019060010190611f09565b505050509050919050565b611fc8612021565b611ffe576040517fd7e6bcf800000000000000000000000000000000000000000000000000000000815260040160405180910390fd5b565b612008611fc0565b6000612012611ea9565b90506001816000018190555050565b600061202b611cfc565b60000160089054906101000a900460ff16905090565b828054828255906000526020600020908101928215612089579160200282015b828111156120885782518290816120789190612fce565b5091602001919060010190612061565b5b509050612096919061209a565b5090565b5b808211156120ba57600081816120b191906120be565b5060010161209b565b5090565b5080546120ca90612df1565b6000825580601f106120dc57506120fb565b601f0160209004906000526020600020908101906120fa91906120fe565b5b50565b5b808211156121175760008160009055506001016120ff565b5090565b6000819050919050565b61212e8161211b565b82525050565b60006020820190506121496000830184612125565b92915050565b6000604051905090565b600080fd5b600080fd5b61216c8161211b565b811461217757600080fd5b50565b60008135905061218981612163565b92915050565b600080fd5b600080fd5b6000601f19601f8301169050919050565b7f4e487b7100000000000000000000000000000000000000000000000000000000600052604160045260246000fd5b6121e282612199565b810181811067ffffffffffffffff82111715612201576122006121aa565b5b80604052505050565b600061221461214f565b905061222082826121d9565b919050565b600067ffffffffffffffff8211156122405761223f6121aa565b5b61224982612199565b9050602081019050919050565b82818337600083830152505050565b600061227861227384612225565b61220a565b90508281526020810184848401111561229457612293612194565b5b61229f848285612256565b509392505050565b600082601f8301126122bc576122bb61218f565b5b81356122cc848260208601612265565b91505092915050565b6000806000606084860312156122ee576122ed612159565b5b60006122fc8682870161217a565b935050602084013567ffffffffffffffff81111561231d5761231c61215e565b5b612329868287016122a7565b925050604061233a8682870161217a565b9150509250925092565b600067ffffffffffffffff82111561235f5761235e6121aa565b5b602082029050602081019050919050565b600080fd5b600061238861238384612344565b61220a565b905080838252602082019050602084028301858111156123ab576123aa612370565b5b835b818110156123f257803567ffffffffffffffff8111156123d0576123cf61218f565b5b8086016123dd89826122a7565b855260208501945050506020810190506123ad565b5050509392505050565b600082601f8301126124115761241061218f565b5b8135612421848260208601612375565b91505092915050565b600067ffffffffffffffff821115612445576124446121aa565b5b602082029050602081019050919050565b60006124696124648461242a565b61220a565b9050808382526020820190506020840283018581111561248c5761248b612370565b5b835b818110156124b557806124a1888261217a565b84526020840193505060208101905061248e565b5050509392505050565b600082601f8301126124d4576124d361218f565b5b81356124e4848260208601612456565b91505092915050565b600080600080600060a0868803121561250957612508612159565b5b60006125178882890161217a565b95505060206125288882890161217a565b945050604086013567ffffffffffffffff8111156125495761254861215e565b5b612555888289016122a7565b935050606086013567ffffffffffffffff8111156125765761257561215e565b5b612582888289016123fc565b925050608086013567ffffffffffffffff8111156125a3576125a261215e565b5b6125af888289016124bf565b9150509295509295909350565b600080604083850312156125d3576125d2612159565b5b60006125e18582860161217a565b925050602083013567ffffffffffffffff8111156126025761260161215e565b5b61260e858286016122a7565b9150509250929050565b60006020828403121561262e5761262d612159565b5b600061263c8482850161217a565b91505092915050565b600081519050919050565b600082825260208201905092915050565b60005b8381101561267f578082015181840152602081019050612664565b60008484015250505050565b600061269682612645565b6126a08185612650565b93506126b0818560208601612661565b6126b981612199565b840191505092915050565b600081519050919050565b600082825260208201905092915050565b6000819050602082019050919050565b600082825260208201905092915050565b600061270c82612645565b61271681856126f0565b9350612726818560208601612661565b61272f81612199565b840191505092915050565b60006127468383612701565b905092915050565b6000602082019050919050565b6000612766826126c4565b61277081856126cf565b935083602082028501612782856126e0565b8060005b858110156127be578484038952815161279f858261273a565b94506127aa8361274e565b925060208a01995050600181019050612786565b50829750879550505050505092915050565b600060a08201905081810360008301526127ea818861268b565b905081810360208301526127fe818761268b565b90508181036040830152612812818661268b565b90508181036060830152612826818561268b565b9050818103608083015261283a818461275b565b90509695505050505050565b600080600080600060a0868803121561286257612861612159565b5b600086013567ffffffffffffffff8111156128805761287f61215e565b5b61288c888289016122a7565b955050602086013567ffffffffffffffff8111156128ad576128ac61215e565b5b6128b9888289016122a7565b945050604086013567ffffffffffffffff8111156128da576128d961215e565b5b6128e6888289016122a7565b935050606086013567ffffffffffffffff8111156129075761290661215e565b5b612913888289016122a7565b925050608086013567ffffffffffffffff8111156129345761293361215e565b5b612940888289016123fc565b9150509295509295909350565b7f4e487b7100000000000000000000000000000000000000000000000000000000600052602160045260246000fd5b6003811061298d5761298c61294d565b5b50565b600081905061299e8261297c565b919050565b60006129ae82612990565b9050919050565b6129be816129a3565b82525050565b600060e08201905081810360008301526129de818a61268b565b905081810360208301526129f2818961268b565b9050612a016040830188612125565b612a0e6060830187612125565b8181036080830152612a20818661275b565b9050612a2f60a0830185612125565b612a3c60c08301846129b5565b98975050505050505050565b600060c0820190508181036000830152612a62818961268b565b90508181036020830152612a76818861268b565b9050612a856040830187612125565b612a926060830186612125565b612a9f6080830185612125565b612aac60a08301846129b5565b979650505050505050565b60006080820190508181036000830152612ad1818761268b565b90508181036020830152612ae5818661268b565b90508181036040830152612af9818561268b565b90508181036060830152612b0d818461268b565b905095945050505050565b600081519050919050565b600082825260208201905092915050565b6000819050602082019050919050565b612b4d8161211b565b82525050565b6000612b5f8383612b44565b60208301905092915050565b6000602082019050919050565b6000612b8382612b18565b612b8d8185612b23565b9350612b9883612b34565b8060005b83811015612bc9578151612bb08882612b53565b9750612bbb83612b6b565b925050600181019050612b9c565b5085935050505092915050565b60006040820190508181036000830152612bf0818561275b565b90508181036020830152612c048184612b78565b90509392505050565b600081905092915050565b6000612c2382612645565b612c2d8185612c0d565b9350612c3d818560208601612661565b80840191505092915050565b6000612c558284612c18565b915081905092915050565b7f4163636573732064656e6965643a204e6f74206120636861726765642075736560008201527f72206f662074686973206c6f636174696f6e0000000000000000000000000000602082015250565b6000612cbc603283612650565b9150612cc782612c60565b604082019050919050565b60006020820190508181036000830152612ceb81612caf565b9050919050565b6000606082019050612d076000830186612125565b8181036020830152612d19818561268b565b9050612d286040830184612125565b949350505050565b7f4974656d7320616e64207175616e746974696573206c656e677468206d69736d60008201527f6174636800000000000000000000000000000000000000000000000000000000602082015250565b6000612d8c602483612650565b9150612d9782612d30565b604082019050919050565b60006020820190508181036000830152612dbb81612d7f565b9050919050565b7f4e487b7100000000000000000000000000000000000000000000000000000000600052602260045260246000fd5b60006002820490506001821680612e0957607f821691505b602082108103612e1c57612e1b612dc2565b5b50919050565b60008190508160005260206000209050919050565b60006020601f8301049050919050565b600082821b905092915050565b600060088302612e847fffffffffffffffffffffffffffffffffffffffffffffffffffffffffffffffff82612e47565b612e8e8683612e47565b95508019841693508086168417925050509392505050565b6000819050919050565b6000612ecb612ec6612ec18461211b565b612ea6565b61211b565b9050919050565b6000819050919050565b612ee583612eb0565b612ef9612ef182612ed2565b848454612e54565b825550505050565b600090565b612f0e612f01565b612f19818484612edc565b505050565b5b81811015612f3d57612f32600082612f06565b600181019050612f1f565b5050565b601f821115612f8257612f5381612e22565b612f5c84612e37565b81016020851015612f6b578190505b612f7f612f7785612e37565b830182612f1e565b50505b505050565b600082821c905092915050565b6000612fa560001984600802612f87565b1980831691505092915050565b6000612fbe8383612f94565b9150826002028217905092915050565b612fd782612645565b67ffffffffffffffff811115612ff057612fef6121aa565b5b612ffa8254612df1565b613005828285612f41565b600060209050601f8311600181146130385760008415613026578287015190505b6130308582612fb2565b865550613098565b601f19841661304686612e22565b60005b8281101561306e57848901518255600182019150602085019450602081019050613049565b8683101561308b5784890151613087601f891682612f94565b8355505b6001600288020188555050505b505050505050565b7f4e487b7100000000000000000000000000000000000000000000000000000000600052603260045260246000fd5b7f496e73756666696369656e74206974656d7320696e20736f75726365206c6f6360008201527f6174696f6e000000000000000000000000000000000000000000000000000000602082015250565b600061312b602583612650565b9150613136826130cf565b604082019050919050565b6000602082019050818103600083015261315a8161311e565b9050919050565b60006080820190506131766000830187612125565b8181036020830152613188818661268b565b90506131976040830185612125565b6131a46060830184612125565b95945050505050565b7f4e487b7100000000000000000000000000000000000000000000000000000000600052601160045260246000fd5b60006131e78261211b565b91507fffffffffffffffffffffffffffffffffffffffffffffffffffffffffffffffff8203613219576132186131ad565b5b600182019050919050565b7f4465706f736974206973206e6f742070656e64696e6700000000000000000000600082015250565b600061325a601683612650565b915061326582613224565b602082019050919050565b600060208201905081810360008301526132898161324d565b9050919050565b60006040820190506132a56000830185612125565b81810360208301526132b7818461268b565b90509392505050565b6000819050919050565b600067ffffffffffffffff82169050919050565b60006132f96132f46132ef846132c0565b612ea6565b6132ca565b9050919050565b613309816132de565b82525050565b60006020820190506133246000830184613300565b92915050565b7f4c6f636174696f6e206e616d652063616e6e6f7420626520656d707479000000600082015250565b6000613360601d83612650565b915061336b8261332a565b602082019050919050565b6000602082019050818103600083015261338f81613353565b9050919050565b7f436f6f7264696e617465732063616e6e6f7420626520656d7074790000000000600082015250565b60006133cc601b83612650565b91506133d782613396565b602082019050919050565b600060208201905081810360008301526133fb816133bf565b9050919050565b7f4c6f636174696f6e20616c726561647920657869737473000000000000000000600082015250565b6000613438601783612650565b915061344382613402565b602082019050919050565b600060208201905081810360008301526134678161342b565b9050919050565b7f5573657220616c726561647920617574686f72697a6564000000000000000000600082015250565b60006134a4601783612650565b91506134af8261346e565b602082019050919050565b600060208201905081810360008301526134d381613497565b9050919050565b60006134e58261211b565b91506134f08361211b565b9250828203905081811115613508576135076131ad565b5b92915050565b60006135198261211b565b91506135248361211b565b925082820190508082111561353c5761353b6131ad565b5b92915050565b6000815461354f81612df1565b6135598186612c0d565b945060018216600081146135745760018114613589576135bc565b60ff19831686528115158202860193506135bc565b61359285612e22565b60005b838110156135b457815481890152600182019150602081019050613595565b838801955050505b50505092915050565b60006135d18284613542565b91508190509291505056fea26469706673582212209b890857a49dc0b467e2e3befb1eccac7ad3e9447bec20354895020b7711167464736f6c63430008180033",
  "linkReferences": {},
  "deployedLinkReferences": {}
}