{
  "_format": "hh-sol-artifact-1",
  "contractName": "Logistics",
  "sourceName": "contracts/Logistics.sol",
  "abi": [
    {
      "inputs": [],
      "name": "InvalidInitialization",
      "type": "error"
    },
    {
      "inputs": [],
      "name": "NotInitializing",
      "type": "error"
    },
    {
      "inputs": [],
      "name": "ReentrancyGuardReentrantCall",
      "type": "error"
    },
    {
      "anonymous": false,
      "inputs": [
        {
          "indexed": false,
          "internalType": "uint256",
          "name": "depositId",
          "type": "uint256"
        },
        {
          "indexed": false,
          "internalType": "string",
          "name": "confirmUserUUID",
          "type": "string"
        }
      ],
      "name": "DepositApproved",
      "type": "event"
    },
    {
      "anonymous": false,
      "inputs": [
        {
          "indexed": false,
          "internalType": "uint256",
          "name": "depositId",
          "type": "uint256"
        },
        {
          "indexed": false,
          "internalType": "string",
          "name": "chargedUserUUID",
          "type": "string"
        },
        {
          "indexed": false,
          "internalType": "uint256",
          "name": "sourceLocationId",
          "type": "uint256"
        },
        {
          "indexed": false,
          "internalType": "uint256",
          "name": "destLocationId",
          "type": "uint256"
        }
      ],
      "name": "DepositCreated",
      "type": "event"
    },
    {
      "anonymous": false,
      "inputs": [
        {
          "indexed": false,
          "internalType": "uint256",
          "name": "depositId",
          "type": "uint256"
        },
        {
          "indexed": false,
          "internalType": "string",
          "name": "confirmUserUUID",
          "type": "string"
        }
      ],
      "name": "DepositRejected",
      "type": "event"
    },
    {
      "anonymous": false,
      "inputs": [
        {
          "indexed": false,
          "internalType": "uint64",
          "name": "version",
          "type": "uint64"
        }
      ],
      "name": "Initialized",
      "type": "event"
    },
    {
      "anonymous": false,
      "inputs": [
        {
          "indexed": false,
          "internalType": "uint256",
          "name": "locationId",
          "type": "uint256"
        },
        {
          "indexed": false,
          "internalType": "string",
          "name": "itemName",
          "type": "string"
        },
        {
          "indexed": false,
          "internalType": "uint256",
          "name": "quantity",
          "type": "uint256"
        }
      ],
      "name": "ItemQuantityUpdated",
      "type": "event"
    },
    {
      "anonymous": false,
      "inputs": [
        {
          "indexed": false,
          "internalType": "uint256",
          "name": "locationId",
          "type": "uint256"
        },
        {
          "indexed": false,
          "internalType": "string",
          "name": "name",
          "type": "string"
        }
      ],
      "name": "LocationCreated",
      "type": "event"
    },
    {
      "anonymous": false,
      "inputs": [
        {
          "indexed": false,
          "internalType": "uint256",
          "name": "locationId",
          "type": "uint256"
        },
        {
          "indexed": false,
          "internalType": "string",
          "name": "userUUID",
          "type": "string"
        }
      ],
      "name": "UserAuthorized",
      "type": "event"
    },
    {
      "inputs": [
        {
          "internalType": "uint256",
          "name": "_locationId",
          "type": "uint256"
        },
        {
          "internalType": "string",
          "name": "_userUUID",
          "type": "string"
        }
      ],
      "name": "addChargedUser",
      "outputs": [],
      "stateMutability": "nonpayable",
      "type": "function"
    },
    {
      "inputs": [
        {
          "internalType": "uint256",
          "name": "_depositId",
          "type": "uint256"
        },
        {
          "internalType": "string",
          "name": "_confirmUserUUID",
          "type": "string"
        }
      ],
      "name": "approveDeposit",
      "outputs": [],
      "stateMutability": "nonpayable",
      "type": "function"
    },
    {
      "inputs": [
        {
          "internalType": "uint256",
          "name": "_sourceLocationId",
          "type": "uint256"
        },
        {
          "internalType": "uint256",
          "name": "_destLocationId",
          "type": "uint256"
        },
        {
          "internalType": "string",
          "name": "_chargedUserUUID",
          "type": "string"
        },
        {
          "internalType": "string[]",
          "name": "_itemNames",
          "type": "string[]"
        },
        {
          "internalType": "uint256[]",
          "name": "_itemQuantities",
          "type": "uint256[]"
        }
      ],
      "name": "createDeposit",
      "outputs": [],
      "stateMutability": "nonpayable",
      "type": "function"
    },
    {
      "inputs": [
        {
          "internalType": "string",
          "name": "_type",
          "type": "string"
        },
        {
          "internalType": "string",
          "name": "_name",
          "type": "string"
        },
        {
          "internalType": "string",
          "name": "_xCor",
          "type": "string"
        },
        {
          "internalType": "string",
          "name": "_yCor",
          "type": "string"
        },
        {
          "internalType": "string[]",
          "name": "_chargedUserUUIDs",
          "type": "string[]"
        },
        {
          "internalType": "string[]",
          "name": "itemNames",
          "type": "string[]"
        },
        {
          "internalType": "uint256[]",
          "name": "itemAmounts",
          "type": "uint256[]"
        }
      ],
      "name": "createLocation",
      "outputs": [],
      "stateMutability": "nonpayable",
      "type": "function"
    },
    {
      "inputs": [],
      "name": "depositCount",
      "outputs": [
        {
          "internalType": "uint256",
          "name": "",
          "type": "uint256"
        }
      ],
      "stateMutability": "view",
      "type": "function"
    },
    {
      "inputs": [
        {
          "internalType": "uint256",
          "name": "",
          "type": "uint256"
        }
      ],
      "name": "deposits",
      "outputs": [
        {
          "internalType": "string",
          "name": "chargedUserUUID",
          "type": "string"
        },
        {
          "internalType": "string",
          "name": "confirmUserUUID",
          "type": "string"
        },
        {
          "internalType": "uint256",
          "name": "sourceLocationId",
          "type": "uint256"
        },
        {
          "internalType": "uint256",
          "name": "destLocationId",
          "type": "uint256"
        },
        {
          "internalType": "uint256",
          "name": "timestamp",
          "type": "uint256"
        },
        {
          "internalType": "enum Logistics.DepositStatus",
          "name": "status",
          "type": "uint8"
        }
      ],
      "stateMutability": "view",
      "type": "function"
    },
    {
      "inputs": [
        {
          "internalType": "uint256",
          "name": "_depositId",
          "type": "uint256"
        }
      ],
      "name": "getDeposit",
      "outputs": [
        {
          "internalType": "string",
          "name": "",
          "type": "string"
        },
        {
          "internalType": "string",
          "name": "",
          "type": "string"
        },
        {
          "internalType": "uint256",
          "name": "",
          "type": "uint256"
        },
        {
          "internalType": "uint256",
          "name": "",
          "type": "uint256"
        },
        {
          "internalType": "string[]",
          "name": "",
          "type": "string[]"
        },
        {
          "internalType": "uint256",
          "name": "",
          "type": "uint256"
        },
        {
          "internalType": "enum Logistics.DepositStatus",
          "name": "",
          "type": "uint8"
        }
      ],
      "stateMutability": "view",
      "type": "function"
    },
    {
      "inputs": [
        {
          "internalType": "uint256",
          "name": "_locationId",
          "type": "uint256"
        }
      ],
      "name": "getItemListForLocation",
      "outputs": [
        {
          "internalType": "string[]",
          "name": "",
          "type": "string[]"
        },
        {
          "internalType": "uint256[]",
          "name": "",
          "type": "uint256[]"
        }
      ],
      "stateMutability": "view",
      "type": "function"
    },
    {
      "inputs": [
        {
          "internalType": "uint256",
          "name": "_locationId",
          "type": "uint256"
        }
      ],
      "name": "getLocation",
      "outputs": [
        {
          "internalType": "string",
          "name": "",
          "type": "string"
        },
        {
          "internalType": "string",
          "name": "",
          "type": "string"
        },
        {
          "internalType": "string",
          "name": "",
          "type": "string"
        },
        {
          "internalType": "string",
          "name": "",
          "type": "string"
        },
        {
          "internalType": "string[]",
          "name": "",
          "type": "string[]"
        },
        {
          "internalType": "string[]",
          "name": "",
          "type": "string[]"
        },
        {
          "internalType": "uint256[]",
          "name": "",
          "type": "uint256[]"
        }
      ],
      "stateMutability": "view",
      "type": "function"
    },
    {
      "inputs": [],
      "name": "initialize",
      "outputs": [],
      "stateMutability": "nonpayable",
      "type": "function"
    },
    {
      "inputs": [],
      "name": "locationCount",
      "outputs": [
        {
          "internalType": "uint256",
          "name": "",
          "type": "uint256"
        }
      ],
      "stateMutability": "view",
      "type": "function"
    },
    {
      "inputs": [
        {
          "internalType": "uint256",
          "name": "",
          "type": "uint256"
        }
      ],
      "name": "locations",
      "outputs": [
        {
          "internalType": "string",
          "name": "locationType",
          "type": "string"
        },
        {
          "internalType": "string",
          "name": "name",
          "type": "string"
        },
        {
          "internalType": "string",
          "name": "xCor",
          "type": "string"
        },
        {
          "internalType": "string",
          "name": "yCor",
          "type": "string"
        }
      ],
      "stateMutability": "view",
      "type": "function"
    },
    {
      "inputs": [
        {
          "internalType": "uint256",
          "name": "_depositId",
          "type": "uint256"
        },
        {
          "internalType": "string",
          "name": "_confirmUserUUID",
          "type": "string"
        }
      ],
      "name": "rejectDeposit",
      "outputs": [],
      "stateMutability": "nonpayable",
      "type": "function"
    },
    {
      "inputs": [
        {
          "internalType": "uint256",
          "name": "_locationId",
          "type": "uint256"
        },
        {
          "internalType": "string",
          "name": "_itemName",
          "type": "string"
        },
        {
          "internalType": "uint256",
          "name": "_quantity",
          "type": "uint256"
        }
      ],
      "name": "updateItemQuantity",
      "outputs": [],
      "stateMutability": "nonpayable",
      "type": "function"
    }
  ],
  "bytecode": "0x60806040526000600255600060035534801561001a57600080fd5b50613a318061002a6000396000f3fe608060405234801561001057600080fd5b50600436106100ea5760003560e01c8063887032541161008c578063b3eee24911610066578063b3eee24914610246578063b9e0db3514610262578063cbd5b51514610295578063e608f86e146102c6576100ea565b806388703254146101bd5780639f9fb968146101db578063b02c43d014610211576100ea565b8063559d4771116100c8578063559d47711461014557806362d0c8f0146101615780637f7b13931461017d5780638129fc1c146101b3576100ea565b80632dfdf0b5146100ef57806331fd9b751461010d57806350d5bd7d14610129575b600080fd5b6100f76102e2565b6040516101049190612438565b60405180910390f35b610127600480360381019061012291906125d9565b6102e8565b005b610143600480360381019061013e91906127f1565b6103e0565b005b61015f600480360381019061015a91906128c0565b6106ac565b005b61017b60048036038101906101769190612a26565b610a0f565b005b61019760048036038101906101929190612a82565b610b93565b6040516101aa9796959493929190612cf8565b60405180910390f35b6101bb6110d4565b005b6101c5611261565b6040516101d29190612438565b60405180910390f35b6101f560048036038101906101f09190612a82565b611267565b6040516102089796959493929190612e0f565b60405180910390f35b61022b60048036038101906102269190612a82565b6114bb565b60405161023d96959493929190612e93565b60405180910390f35b610260600480360381019061025b9190612a26565b611614565b005b61027c60048036038101906102779190612a82565b61178f565b60405161028c9493929190612f02565b60405180910390f35b6102af60048036038101906102aa9190612a82565b6119df565b6040516102bd929190612f63565b60405180910390f35b6102e060048036038101906102db9190612a26565b611c1a565b005b60035481565b82826000808381526020019081526020016000206006018160405161030d9190612fd6565b908152602001604051809103902060009054906101000a900460ff16610368576040517f08c379a000000000000000000000000000000000000000000000000000000000815260040161035f9061305f565b60405180910390fd5b826000808781526020019081526020016000206004018560405161038c9190612fd6565b9081526020016040518091039020819055507f1b6ee99fb46e708c2c5d2763366f5773c0863193933babee12933e48c9a02a498585856040516103d19392919061307f565b60405180910390a15050505050565b8483600080838152602001908152602001600020600601816040516104059190612fd6565b908152602001604051809103902060009054906101000a900460ff16610460576040517f08c379a00000000000000000000000000000000000000000000000000000000081526004016104579061305f565b60405180910390fd5b82518451146104a4576040517f08c379a000000000000000000000000000000000000000000000000000000000815260040161049b9061312f565b60405180910390fd5b60006001600060035481526020019081526020016000209050858160000190816104ce919061335b565b5087816002018190555086816003018190555042816006018190555060008160070160006101000a81548160ff0219169083600281111561051257610511612d98565b5b02179055508481600501908051906020019061052f929190612345565b5060005b855181101561064a5784818151811061054f5761054e61342d565b5b60200260200101516000808b815260200190815260200160002060040187838151811061057f5761057e61342d565b5b60200260200101516040516105949190612fd6565b90815260200160405180910390205410156105e4576040517f08c379a00000000000000000000000000000000000000000000000000000000081526004016105db906134ce565b60405180910390fd5b8481815181106105f7576105f661342d565b5b6020026020010151826004018783815181106106165761061561342d565b5b602002602001015160405161062b9190612fd6565b9081526020016040518091039020819055508080600101915050610533565b507ff2a60942ad5dbbb9e82da183da9646827fd2881448315a9c2bd811738daf99cb600354878a8a60405161068294939291906134ee565b60405180910390a16003600081548092919061069d90613569565b91905055505050505050505050565b60008651116106f0576040517f08c379a00000000000000000000000000000000000000000000000000000000081526004016106e7906135fd565b60405180910390fd5b60008551118015610702575060008451115b610741576040517f08c379a000000000000000000000000000000000000000000000000000000000815260040161073890613669565b60405180910390fd5b61074c868686611dea565b1561078c576040517f08c379a0000000000000000000000000000000000000000000000000000000008152600401610783906136d5565b60405180910390fd5b80518251146107d0576040517f08c379a00000000000000000000000000000000000000000000000000000000081526004016107c790613767565b60405180910390fd5b600080600060025481526020019081526020016000209050878160000190816107f9919061335b565b508681600101908161080b919061335b565b508581600201908161081d919061335b565b508481600301908161082f919061335b565b5060005b84518110156108ed576001826006018683815181106108555761085461342d565b5b602002602001015160405161086a9190612fd6565b908152602001604051809103902060006101000a81548160ff021916908315150217905550816007018582815181106108a6576108a561342d565b5b60200260200101519080600181540180825580915050600190039060005260206000200160009091909190915090816108df919061335b565b508080600101915050610833565b5060005b83518110156109b15782818151811061090d5761090c61342d565b5b60200260200101518260040185838151811061092c5761092b61342d565b5b60200260200101516040516109419190612fd6565b9081526020016040518091039020819055508160050184828151811061096a5761096961342d565b5b60200260200101519080600181540180825580915050600190039060005260206000200160009091909190915090816109a3919061335b565b5080806001019150506108f1565b507f904e97912d6c1177805f50d832b5129a64a9b95af70a38239c29c8514e6c1226600254886040516109e5929190613787565b60405180910390a160026000815480929190610a0090613569565b91905055505050505050505050565b60016000838152602001908152602001600020600301548160008083815260200190815260200160002060060181604051610a4a9190612fd6565b908152602001604051809103902060009054906101000a900460ff16610aa5576040517f08c379a0000000000000000000000000000000000000000000000000000000008152600401610a9c9061305f565b60405180910390fd5b610aad611f5d565b60006002811115610ac157610ac0612d98565b5b6001600086815260200190815260200160002060070160009054906101000a900460ff166002811115610af757610af6612d98565b5b14610b37576040517f08c379a0000000000000000000000000000000000000000000000000000000008152600401610b2e90613803565b60405180910390fd5b610b4384600185611fb4565b610b4c8461201b565b7fa3523848c60823714ef6dac9db948d64e69fac53a4eb697dc4191879f92d316c8484604051610b7d929190613787565b60405180910390a1610b8d61215a565b50505050565b606080606080606080606060008060008a8152602001908152602001600020905060008160070180549050905060008167ffffffffffffffff811115610bdc57610bdb6124ae565b5b604051908082528060200260200182016040528015610c0f57816020015b6060815260200190600190039081610bfa5790505b50905060008267ffffffffffffffff811115610c2e57610c2d6124ae565b5b604051908082528060200260200182016040528015610c5c5781602001602082028036833780820191505090505b50905060005b83811015610d9d57846005018181548110610c8057610c7f61342d565b5b906000526020600020018054610c959061317e565b80601f0160208091040260200160405190810160405280929190818152602001828054610cc19061317e565b8015610d0e5780601f10610ce357610100808354040283529160200191610d0e565b820191906000526020600020905b815481529060010190602001808311610cf157829003601f168201915b5050505050838281518110610d2657610d2561342d565b5b602002602001018190525084600401856007018281548110610d4b57610d4a61342d565b5b90600052602060002001604051610d6291906138a6565b908152602001604051809103902054828281518110610d8457610d8361342d565b5b6020026020010181815250508080600101915050610c62565b5083600001846001018560020186600301876007018686868054610dc09061317e565b80601f0160208091040260200160405190810160405280929190818152602001828054610dec9061317e565b8015610e395780601f10610e0e57610100808354040283529160200191610e39565b820191906000526020600020905b815481529060010190602001808311610e1c57829003601f168201915b50505050509650858054610e4c9061317e565b80601f0160208091040260200160405190810160405280929190818152602001828054610e789061317e565b8015610ec55780601f10610e9a57610100808354040283529160200191610ec5565b820191906000526020600020905b815481529060010190602001808311610ea857829003601f168201915b50505050509550848054610ed89061317e565b80601f0160208091040260200160405190810160405280929190818152602001828054610f049061317e565b8015610f515780601f10610f2657610100808354040283529160200191610f51565b820191906000526020600020905b815481529060010190602001808311610f3457829003601f168201915b50505050509450838054610f649061317e565b80601f0160208091040260200160405190810160405280929190818152602001828054610f909061317e565b8015610fdd5780601f10610fb257610100808354040283529160200191610fdd565b820191906000526020600020905b815481529060010190602001808311610fc057829003601f168201915b5050505050935082805480602002602001604051908101604052809291908181526020016000905b828210156110b15783829060005260206000200180546110249061317e565b80601f01602080910402602001604051908101604052809291908181526020018280546110509061317e565b801561109d5780601f106110725761010080835404028352916020019161109d565b820191906000526020600020905b81548152906001019060200180831161108057829003601f168201915b505050505081526020019060010190611005565b5050505092509a509a509a509a509a509a509a5050505050919395979092949650565b60006110de612173565b905060008160000160089054906101000a900460ff1615905060008260000160009054906101000a900467ffffffffffffffff1690506000808267ffffffffffffffff1614801561112c5750825b9050600060018367ffffffffffffffff16148015611161575060003073ffffffffffffffffffffffffffffffffffffffff163b145b90508115801561116f575080155b156111a6576040517ff92ee8a900000000000000000000000000000000000000000000000000000000815260040160405180910390fd5b60018560000160006101000a81548167ffffffffffffffff021916908367ffffffffffffffff16021790555083156111f65760018560000160086101000a81548160ff0219169083151502179055505b6111fe61219b565b831561125a5760008560000160086101000a81548160ff0219169083151502179055507fc7f505b2f371ae2175ee4913f4499e1f2633a7b5936321eed1cdaeb6115181d26001604051611251919061390c565b60405180910390a15b5050505050565b60025481565b60608060008060606000806000600160008a815260200190815260200160002090508060000181600101826002015483600301548460050185600601548660070160009054906101000a900460ff168680546112c29061317e565b80601f01602080910402602001604051908101604052809291908181526020018280546112ee9061317e565b801561133b5780601f106113105761010080835404028352916020019161133b565b820191906000526020600020905b81548152906001019060200180831161131e57829003601f168201915b5050505050965085805461134e9061317e565b80601f016020809104026020016040519081016040528092919081815260200182805461137a9061317e565b80156113c75780601f1061139c576101008083540402835291602001916113c7565b820191906000526020600020905b8154815290600101906020018083116113aa57829003601f168201915b5050505050955082805480602002602001604051908101604052809291908181526020016000905b8282101561149b57838290600052602060002001805461140e9061317e565b80601f016020809104026020016040519081016040528092919081815260200182805461143a9061317e565b80156114875780601f1061145c57610100808354040283529160200191611487565b820191906000526020600020905b81548152906001019060200180831161146a57829003601f168201915b5050505050815260200190600101906113ef565b505050509250975097509750975097509750975050919395979092949650565b60016020528060005260406000206000915090508060000180546114de9061317e565b80601f016020809104026020016040519081016040528092919081815260200182805461150a9061317e565b80156115575780601f1061152c57610100808354040283529160200191611557565b820191906000526020600020905b81548152906001019060200180831161153a57829003601f168201915b50505050509080600101805461156c9061317e565b80601f01602080910402602001604051908101604052809291908181526020018280546115989061317e565b80156115e55780601f106115ba576101008083540402835291602001916115e5565b820191906000526020600020905b8154815290600101906020018083116115c857829003601f168201915b5050505050908060020154908060030154908060060154908060070160009054906101000a900460ff16905086565b6001600083815260200190815260200160002060030154816000808381526020019081526020016000206006018160405161164f9190612fd6565b908152602001604051809103902060009054906101000a900460ff166116aa576040517f08c379a00000000000000000000000000000000000000000000000000000000081526004016116a19061305f565b60405180910390fd5b6116b2611f5d565b600060028111156116c6576116c5612d98565b5b6001600086815260200190815260200160002060070160009054906101000a900460ff1660028111156116fc576116fb612d98565b5b1461173c576040517f08c379a000000000000000000000000000000000000000000000000000000000815260040161173390613803565b60405180910390fd5b61174884600285611fb4565b7faba7bf6808a7a45eae20d8ee86c162ace278615ce8c4ab1a9d7663143f8f64a58484604051611779929190613787565b60405180910390a161178961215a565b50505050565b60006020528060005260406000206000915090508060000180546117b29061317e565b80601f01602080910402602001604051908101604052809291908181526020018280546117de9061317e565b801561182b5780601f106118005761010080835404028352916020019161182b565b820191906000526020600020905b81548152906001019060200180831161180e57829003601f168201915b5050505050908060010180546118409061317e565b80601f016020809104026020016040519081016040528092919081815260200182805461186c9061317e565b80156118b95780601f1061188e576101008083540402835291602001916118b9565b820191906000526020600020905b81548152906001019060200180831161189c57829003601f168201915b5050505050908060020180546118ce9061317e565b80601f01602080910402602001604051908101604052809291908181526020018280546118fa9061317e565b80156119475780601f1061191c57610100808354040283529160200191611947565b820191906000526020600020905b81548152906001019060200180831161192a57829003601f168201915b50505050509080600301805461195c9061317e565b80601f01602080910402602001604051908101604052809291908181526020018280546119889061317e565b80156119d55780601f106119aa576101008083540402835291602001916119d5565b820191906000526020600020905b8154815290600101906020018083116119b857829003601f168201915b5050505050905084565b606080600080600085815260200190815260200160002090506000816007018054905067ffffffffffffffff811115611a1b57611a1a6124ae565b5b604051908082528060200260200182016040528015611a4e57816020015b6060815260200190600190039081611a395790505b5090506000826007018054905067ffffffffffffffff811115611a7457611a736124ae565b5b604051908082528060200260200182016040528015611aa25781602001602082028036833780820191505090505b5090506000805b8460070180549050811015611c0a576000856007018281548110611ad057611acf61342d565b5b906000526020600020018054611ae59061317e565b80601f0160208091040260200160405190810160405280929190818152602001828054611b119061317e565b8015611b5e5780601f10611b3357610100808354040283529160200191611b5e565b820191906000526020600020905b815481529060010190602001808311611b4157829003601f168201915b5050505050905060008660040182604051611b799190612fd6565b9081526020016040518091039020541115611bfc5780858481518110611ba257611ba161342d565b5b60200260200101819052508560040181604051611bbf9190612fd6565b908152602001604051809103902054848481518110611be157611be061342d565b5b6020026020010181815250508280611bf890613569565b9350505b508080600101915050611aa9565b5082829550955050505050915091565b818160008083815260200190815260200160002060060181604051611c3f9190612fd6565b908152602001604051809103902060009054906101000a900460ff16611c9a576040517f08c379a0000000000000000000000000000000000000000000000000000000008152600401611c919061305f565b60405180910390fd5b60008085815260200190815260200160002060060183604051611cbd9190612fd6565b908152602001604051809103902060009054906101000a900460ff1615611d19576040517f08c379a0000000000000000000000000000000000000000000000000000000008152600401611d1090613973565b60405180910390fd5b600160008086815260200190815260200160002060060184604051611d3e9190612fd6565b908152602001604051809103902060006101000a81548160ff02191690831515021790555060008085815260200190815260200160002060070183908060018154018082558091505060019003906000526020600020016000909190919091509081611daa919061335b565b507f782bd655988037e86c1517b1520e4efd1c3e8a15b0ac2e0de9ea3bcc1eaa2ac88484604051611ddc929190613787565b60405180910390a150505050565b600080600090505b600254811015611f505784604051602001611e0d9190612fd6565b60405160208183030381529060405280519060200120600080838152602001908152602001600020600101604051602001611e4891906138a6565b604051602081830303815290604052805190602001201480611f34575083604051602001611e769190612fd6565b60405160208183030381529060405280519060200120600080838152602001908152602001600020600201604051602001611eb191906138a6565b60405160208183030381529060405280519060200120148015611f33575082604051602001611ee09190612fd6565b60405160208183030381529060405280519060200120600080838152602001908152602001600020600301604051602001611f1b91906138a6565b60405160208183030381529060405280519060200120145b5b15611f43576001915050611f56565b8080600101915050611df2565b50600090505b9392505050565b6000611f676121ad565b90506002816000015403611fa7576040517f3ee5aeb500000000000000000000000000000000000000000000000000000000815260040160405180910390fd5b6002816000018190555050565b816001600085815260200190815260200160002060070160006101000a81548160ff02191690836002811115611fed57611fec612d98565b5b021790555080600160008581526020019081526020016000206001019081612015919061335b565b50505050565b6000612026826121d5565b905060005b81518110156121555760008282815181106120495761204861342d565b5b60200260200101519050600060016000868152602001908152602001600020600401826040516120799190612fd6565b90815260200160405180910390205490508060008060016000898152602001908152602001600020600201548152602001908152602001600020600401836040516120c49190612fd6565b908152602001604051809103902060008282546120e19190613993565b925050819055508060008060016000898152602001908152602001600020600301548152602001908152602001600020600401836040516121229190612fd6565b9081526020016040518091039020600082825461213f91906139c7565b925050819055505050808060010191505061202b565b505050565b60006121646121ad565b90506001816000018190555050565b60007ff0c57e16840df040f15088dc2f81fe391c3923bec73e23a9662efc9c229c6a00905090565b6121a36122c4565b6121ab612304565b565b60007f9b779b17422d0df92223018b32b4d1fa46e071723d6817e2486d003becc55f00905090565b606060016000838152602001908152602001600020600501805480602002602001604051908101604052809291908181526020016000905b828210156122b957838290600052602060002001805461222c9061317e565b80601f01602080910402602001604051908101604052809291908181526020018280546122589061317e565b80156122a55780601f1061227a576101008083540402835291602001916122a5565b820191906000526020600020905b81548152906001019060200180831161228857829003601f168201915b50505050508152602001906001019061220d565b505050509050919050565b6122cc612325565b612302576040517fd7e6bcf800000000000000000000000000000000000000000000000000000000815260040160405180910390fd5b565b61230c6122c4565b60006123166121ad565b90506001816000018190555050565b600061232f612173565b60000160089054906101000a900460ff16905090565b82805482825590600052602060002090810192821561238d579160200282015b8281111561238c57825182908161237c919061335b565b5091602001919060010190612365565b5b50905061239a919061239e565b5090565b5b808211156123be57600081816123b591906123c2565b5060010161239f565b5090565b5080546123ce9061317e565b6000825580601f106123e057506123ff565b601f0160209004906000526020600020908101906123fe9190612402565b5b50565b5b8082111561241b576000816000905550600101612403565b5090565b6000819050919050565b6124328161241f565b82525050565b600060208201905061244d6000830184612429565b92915050565b6000604051905090565b600080fd5b600080fd5b6124708161241f565b811461247b57600080fd5b50565b60008135905061248d81612467565b92915050565b600080fd5b600080fd5b6000601f19601f8301169050919050565b7f4e487b7100000000000000000000000000000000000000000000000000000000600052604160045260246000fd5b6124e68261249d565b810181811067ffffffffffffffff82111715612505576125046124ae565b5b80604052505050565b6000612518612453565b905061252482826124dd565b919050565b600067ffffffffffffffff821115612544576125436124ae565b5b61254d8261249d565b9050602081019050919050565b82818337600083830152505050565b600061257c61257784612529565b61250e565b90508281526020810184848401111561259857612597612498565b5b6125a384828561255a565b509392505050565b600082601f8301126125c0576125bf612493565b5b81356125d0848260208601612569565b91505092915050565b6000806000606084860312156125f2576125f161245d565b5b60006126008682870161247e565b935050602084013567ffffffffffffffff81111561262157612620612462565b5b61262d868287016125ab565b925050604061263e8682870161247e565b9150509250925092565b600067ffffffffffffffff821115612663576126626124ae565b5b602082029050602081019050919050565b600080fd5b600061268c61268784612648565b61250e565b905080838252602082019050602084028301858111156126af576126ae612674565b5b835b818110156126f657803567ffffffffffffffff8111156126d4576126d3612493565b5b8086016126e189826125ab565b855260208501945050506020810190506126b1565b5050509392505050565b600082601f83011261271557612714612493565b5b8135612725848260208601612679565b91505092915050565b600067ffffffffffffffff821115612749576127486124ae565b5b602082029050602081019050919050565b600061276d6127688461272e565b61250e565b905080838252602082019050602084028301858111156127905761278f612674565b5b835b818110156127b957806127a5888261247e565b845260208401935050602081019050612792565b5050509392505050565b600082601f8301126127d8576127d7612493565b5b81356127e884826020860161275a565b91505092915050565b600080600080600060a0868803121561280d5761280c61245d565b5b600061281b8882890161247e565b955050602061282c8882890161247e565b945050604086013567ffffffffffffffff81111561284d5761284c612462565b5b612859888289016125ab565b935050606086013567ffffffffffffffff81111561287a57612879612462565b5b61288688828901612700565b925050608086013567ffffffffffffffff8111156128a7576128a6612462565b5b6128b3888289016127c3565b9150509295509295909350565b600080600080600080600060e0888a0312156128df576128de61245d565b5b600088013567ffffffffffffffff8111156128fd576128fc612462565b5b6129098a828b016125ab565b975050602088013567ffffffffffffffff81111561292a57612929612462565b5b6129368a828b016125ab565b965050604088013567ffffffffffffffff81111561295757612956612462565b5b6129638a828b016125ab565b955050606088013567ffffffffffffffff81111561298457612983612462565b5b6129908a828b016125ab565b945050608088013567ffffffffffffffff8111156129b1576129b0612462565b5b6129bd8a828b01612700565b93505060a088013567ffffffffffffffff8111156129de576129dd612462565b5b6129ea8a828b01612700565b92505060c088013567ffffffffffffffff811115612a0b57612a0a612462565b5b612a178a828b016127c3565b91505092959891949750929550565b60008060408385031215612a3d57612a3c61245d565b5b6000612a4b8582860161247e565b925050602083013567ffffffffffffffff811115612a6c57612a6b612462565b5b612a78858286016125ab565b9150509250929050565b600060208284031215612a9857612a9761245d565b5b6000612aa68482850161247e565b91505092915050565b600081519050919050565b600082825260208201905092915050565b60005b83811015612ae9578082015181840152602081019050612ace565b60008484015250505050565b6000612b0082612aaf565b612b0a8185612aba565b9350612b1a818560208601612acb565b612b238161249d565b840191505092915050565b600081519050919050565b600082825260208201905092915050565b6000819050602082019050919050565b600082825260208201905092915050565b6000612b7682612aaf565b612b808185612b5a565b9350612b90818560208601612acb565b612b998161249d565b840191505092915050565b6000612bb08383612b6b565b905092915050565b6000602082019050919050565b6000612bd082612b2e565b612bda8185612b39565b935083602082028501612bec85612b4a565b8060005b85811015612c285784840389528151612c098582612ba4565b9450612c1483612bb8565b925060208a01995050600181019050612bf0565b50829750879550505050505092915050565b600081519050919050565b600082825260208201905092915050565b6000819050602082019050919050565b612c6f8161241f565b82525050565b6000612c818383612c66565b60208301905092915050565b6000602082019050919050565b6000612ca582612c3a565b612caf8185612c45565b9350612cba83612c56565b8060005b83811015612ceb578151612cd28882612c75565b9750612cdd83612c8d565b925050600181019050612cbe565b5085935050505092915050565b600060e0820190508181036000830152612d12818a612af5565b90508181036020830152612d268189612af5565b90508181036040830152612d3a8188612af5565b90508181036060830152612d4e8187612af5565b90508181036080830152612d628186612bc5565b905081810360a0830152612d768185612bc5565b905081810360c0830152612d8a8184612c9a565b905098975050505050505050565b7f4e487b7100000000000000000000000000000000000000000000000000000000600052602160045260246000fd5b60038110612dd857612dd7612d98565b5b50565b6000819050612de982612dc7565b919050565b6000612df982612ddb565b9050919050565b612e0981612dee565b82525050565b600060e0820190508181036000830152612e29818a612af5565b90508181036020830152612e3d8189612af5565b9050612e4c6040830188612429565b612e596060830187612429565b8181036080830152612e6b8186612bc5565b9050612e7a60a0830185612429565b612e8760c0830184612e00565b98975050505050505050565b600060c0820190508181036000830152612ead8189612af5565b90508181036020830152612ec18188612af5565b9050612ed06040830187612429565b612edd6060830186612429565b612eea6080830185612429565b612ef760a0830184612e00565b979650505050505050565b60006080820190508181036000830152612f1c8187612af5565b90508181036020830152612f308186612af5565b90508181036040830152612f448185612af5565b90508181036060830152612f588184612af5565b905095945050505050565b60006040820190508181036000830152612f7d8185612bc5565b90508181036020830152612f918184612c9a565b90509392505050565b600081905092915050565b6000612fb082612aaf565b612fba8185612f9a565b9350612fca818560208601612acb565b80840191505092915050565b6000612fe28284612fa5565b915081905092915050565b7f4163636573732064656e6965643a204e6f74206120636861726765642075736560008201527f72206f662074686973206c6f636174696f6e0000000000000000000000000000602082015250565b6000613049603283612aba565b915061305482612fed565b604082019050919050565b600060208201905081810360008301526130788161303c565b9050919050565b60006060820190506130946000830186612429565b81810360208301526130a68185612af5565b90506130b56040830184612429565b949350505050565b7f4974656d7320616e64207175616e746974696573206c656e677468206d69736d60008201527f6174636800000000000000000000000000000000000000000000000000000000602082015250565b6000613119602483612aba565b9150613124826130bd565b604082019050919050565b600060208201905081810360008301526131488161310c565b9050919050565b7f4e487b7100000000000000000000000000000000000000000000000000000000600052602260045260246000fd5b6000600282049050600182168061319657607f821691505b6020821081036131a9576131a861314f565b5b50919050565b60008190508160005260206000209050919050565b60006020601f8301049050919050565b600082821b905092915050565b6000600883026132117fffffffffffffffffffffffffffffffffffffffffffffffffffffffffffffffff826131d4565b61321b86836131d4565b95508019841693508086168417925050509392505050565b6000819050919050565b600061325861325361324e8461241f565b613233565b61241f565b9050919050565b6000819050919050565b6132728361323d565b61328661327e8261325f565b8484546131e1565b825550505050565b600090565b61329b61328e565b6132a6818484613269565b505050565b5b818110156132ca576132bf600082613293565b6001810190506132ac565b5050565b601f82111561330f576132e0816131af565b6132e9846131c4565b810160208510156132f8578190505b61330c613304856131c4565b8301826132ab565b50505b505050565b600082821c905092915050565b600061333260001984600802613314565b1980831691505092915050565b600061334b8383613321565b9150826002028217905092915050565b61336482612aaf565b67ffffffffffffffff81111561337d5761337c6124ae565b5b613387825461317e565b6133928282856132ce565b600060209050601f8311600181146133c557600084156133b3578287015190505b6133bd858261333f565b865550613425565b601f1984166133d3866131af565b60005b828110156133fb578489015182556001820191506020850194506020810190506133d6565b868310156134185784890151613414601f891682613321565b8355505b6001600288020188555050505b505050505050565b7f4e487b7100000000000000000000000000000000000000000000000000000000600052603260045260246000fd5b7f496e73756666696369656e74206974656d7320696e20736f75726365206c6f6360008201527f6174696f6e000000000000000000000000000000000000000000000000000000602082015250565b60006134b8602583612aba565b91506134c38261345c565b604082019050919050565b600060208201905081810360008301526134e7816134ab565b9050919050565b60006080820190506135036000830187612429565b81810360208301526135158186612af5565b90506135246040830185612429565b6135316060830184612429565b95945050505050565b7f4e487b7100000000000000000000000000000000000000000000000000000000600052601160045260246000fd5b60006135748261241f565b91507fffffffffffffffffffffffffffffffffffffffffffffffffffffffffffffffff82036135a6576135a561353a565b5b600182019050919050565b7f4c6f636174696f6e206e616d652063616e6e6f7420626520656d707479000000600082015250565b60006135e7601d83612aba565b91506135f2826135b1565b602082019050919050565b60006020820190508181036000830152613616816135da565b9050919050565b7f436f6f7264696e617465732063616e6e6f7420626520656d7074790000000000600082015250565b6000613653601b83612aba565b915061365e8261361d565b602082019050919050565b6000602082019050818103600083015261368281613646565b9050919050565b7f4c6f636174696f6e20616c726561647920657869737473000000000000000000600082015250565b60006136bf601783612aba565b91506136ca82613689565b602082019050919050565b600060208201905081810360008301526136ee816136b2565b9050919050565b7f4974656d7320616e6420616d6f756e7473206c656e677468206d69736d61746360008201527f6800000000000000000000000000000000000000000000000000000000000000602082015250565b6000613751602183612aba565b915061375c826136f5565b604082019050919050565b6000602082019050818103600083015261378081613744565b9050919050565b600060408201905061379c6000830185612429565b81810360208301526137ae8184612af5565b90509392505050565b7f4465706f736974206973206e6f742070656e64696e6700000000000000000000600082015250565b60006137ed601683612aba565b91506137f8826137b7565b602082019050919050565b6000602082019050818103600083015261381c816137e0565b9050919050565b600081546138308161317e565b61383a8186612f9a565b94506001821660008114613855576001811461386a5761389d565b60ff198316865281151582028601935061389d565b613873856131af565b60005b8381101561389557815481890152600182019150602081019050613876565b838801955050505b50505092915050565b60006138b28284613823565b915081905092915050565b6000819050919050565b600067ffffffffffffffff82169050919050565b60006138f66138f16138ec846138bd565b613233565b6138c7565b9050919050565b613906816138db565b82525050565b600060208201905061392160008301846138fd565b92915050565b7f5573657220616c726561647920617574686f72697a6564000000000000000000600082015250565b600061395d601783612aba565b915061396882613927565b602082019050919050565b6000602082019050818103600083015261398c81613950565b9050919050565b600061399e8261241f565b91506139a98361241f565b92508282039050818111156139c1576139c061353a565b5b92915050565b60006139d28261241f565b91506139dd8361241f565b92508282019050808211156139f5576139f461353a565b5b9291505056fea2646970667358221220d001a7aa85b3afff3cdaceb0e35ccad7569468d505c394c5cff370fcba1d404c64736f6c63430008180033",
  "linkReferences": {},
  "deployedLinkReferences": {}
}